:020000040800F2
:1000000080FC012079380008ED030008EF030008A8
:10001000F3030008F7030008FB03000800000000DA
:10002000000000000000000000000000FF030008C6
:100030000104000800000000030400080504000893
:100040009338000893380008933800089338000864
:100050009338000893380008933800089338000854
:100060009338000893380008933800089338000844
:100070009338000893380008933800089338000834
:100080009338000893380008933800089338000824
:100090009338000893380008933800089338000814
:1000A0009338000893380008933800089338000804
:1000B00093380008E93200089338000893380008A4
:1000C00093380008933800089338000893380008E4
:1000D00093380008EF370008933800089338000879
:1000E00093380008933800089338000893380008C4
:1000F00093380008933800089338000893380008B4
:1001000093380008752200089338000893380008D7
:100110009338000893380008933800089338000893
:100120009338000893380008933800087D220008AF
:100130009338000893380008933800089338000873
:100140009338000893380008933800089338000863
:100150009338000893380008933800089338000853
:100160009338000893380008933800089338000843
:100170009338000893380008952700089338000842
:10018000933800089338000800F002F800F047F8B0
:100190000AA090E8000C82448344AAF10107DA45E2
:1001A00001D100F03CF8AFF2090EBAE80F0013F0ED
:1001B000010F18BFFB1A43F0010318470054030056
:1001C00020540300103A24BF78C878C1FAD85207E7
:1001D00024BF30C830C144BF04680C6070470000C1
:1001E0000023002400250026103A28BF78C1FBD840
:1001F000520728BF30C148BF0B607047642909F01F
:10020000C784752909F0C484732909F03087002058
:1002100070471FB509F0B1FF1FBD10B510BD09F043
:1002200073FF1146FFF7F5FF00F008F809F091FFA2
:1002300003B4FFF7F2FF03BC03F076FAADF5845D7B
:100240004FF4A06003F038FBA82003F0EBF902F0B4
:100250007CF84FF4E13003F074FA02F0A9F902F0EF
:10026000C7F9012224A114A808F035F80446532147
:1002700042F20F7003F00CF80D2C1ED11FA009F0F4
:1002800017FC002211461CA008F0D8FE04467CB9D9
:1002900025A009F00DFC012217A1002008F01BF891
:1002A0000446012214A114A808F015F8044611E030
:1002B00025A009F0FDFB00BFFEE744B1214628A0C0
:1002C00009F0F6FB2FA009F0F3FB00BFFEE736A014
:1002D00009F0EEFB0FE03EA10BA807F0E9FD044694
:1002E000052C08D13AA008F014FD04461CB93AA127
:1002F0003CA009F0DDFBEEE7303A0000A1B7534423
:10030000BFA8BBB9C3BBD3D0CEC4BCFECFB5CDB3A1
:10031000A3ACBCB4BDABBDF8D0D0B8F1CABDBBAFC7
:100320002E2E2E0D0A000000A1B75344BFA8D2D133
:10033000B3C9B9A6B8F1CABDBBAFCEC4BCFECFB578
:10034000CDB3A1A30D0A0000A1B6A1B6B8F1CABDF4
:10035000BBAFCAA7B0DCA1A3A1B7A1B70D0A00002B
:10036000A3A1A3A15344BFA8B9D2D4D8CEC4BCFE84
:10037000CFB5CDB3CAA7B0DCA1A3282564290D0A47
:1003800000000000A3A1A3A1BFC9C4DCD4ADD2F278
:10039000A3BA5344BFA8B3F5CABCBBAFB2BBB3C981
:1003A000B9A6A1A30D0A0000A1B7CEC4BCFECFB56B
:1003B000CDB3B9D2D4D8B3C9B9A6A3ACBFC9D2D42E
:1003C000BDF8D0D0B6C1D0B4B2E2CAD40D0A000094
:1003D000303A43414D00000046525F45584953545E
:1003E0000000000025730D0A00000000704700BFE8
:1003F000FEE700BFFEE700BFFEE700BFFEE7704775
:1004000070477047704700000CB5002001900090C5
:100410007648006840F480307449086000BF734833
:10042000006800F4003000900198401C0190009892
:1004300018B90198B0F5A04FF1D16C48006800F4EC
:10044000003010B10120009001E0002000900098E1
:10045000012846D165484030006840F0805063492B
:10046000403108606248006840F4404060490860DC
:100470005E48083000685D49083108600846006839
:1004800040F4004008600846006840F4A05008604E
:100490005848091F0860081F006840F08070091F55
:1004A000086000BF5148006800F000700028F9D0D3
:1004B00040F20570504908604C480830006820F050
:1004C00003004A49083108600846006840F002000D
:1004D000086000BF45480830006800F00C0008289C
:1004E000F8D10CBD10B54548006840F47000434990
:1004F00008603E48006840F001003C490860002068
:100500003A4908310860394800683D490840374990
:1005100008603C48091D0860081F006820F480201E
:10052000091F0860002031490C310860FFF76CFF9B
:100530004FF0006031498039086010BD70B500206F
:100540000022022300240221284D08352D6805F0E1
:100550000C0020B1042806D0082834D107E02A4D29
:100560002A4E356033E02A4D284E35602FE01F4D6E
:100570002D1D2D68C5F380541C4D2D1D2D6805F0D3
:100580003F0154B1224DB5FBF1F5184E361D3668CA
:10059000C6F3881605FB06F209E01B4DB5FBF1F525
:1005A000124E361D3668C6F3881605FB06F20F4D4F
:1005B0002D1D2D68C5F301456D1C6B00B2FBF3F5D5
:1005C000124E356003E0104D104E356000BF00BF85
:1005D000064D08352D68C5F303150E4E705D0B4DA5
:1005E0002D68C540094E356070BD000000380240DE
:1005F0000070004008544007003C024088ED00E0D5
:10060000FFFFF6FE103000240024F4000800002054
:1006100000127A000C0000201CB5002005F072F9D1
:10062000002005F072F905F045F900214FF4006053
:1006300003F0CAFF00220821FE4803F084FB0022D9
:100640000921FC4803F07FFB00220A21F94803F04E
:100650007AFB00220B21F74803F075FB00220C21E6
:10066000F44803F070FB00220221F34803F06BFB17
:100670004FF47060009000208DF804008DF80700A2
:100680006946EC4803F0D4FA042000906946EA4831
:1006900003F0CEFA4FF4805000906946E54803F02D
:1006A000C7FA1CBD1CB501210C2003F033FF0C223E
:1006B0000821E04803F047FB0C220921DD4803F044
:1006C00042FB0C220A21DB4803F03DFB0C220B21EC
:1006D000D84803F038FB0C221146D64803F033FB10
:1006E0000C220221D44803F02EFB4FF470600090DE
:1006F00002208DF805008DF8040000208DF806001A
:1007000001208DF807006946CA4803F091FA0420D9
:1007100000906946C84803F08BFA4FF4805000906F
:1007200000208DF807006946C24803F081FA0121D4
:10073000C80203F049FF0121880503F0EBFE1CBD50
:1007400030B58FB004460D464FF0FA51BB4803F068
:1007500088FC0021B94803F00BFCB84803F02CFBDF
:100760004FF000600090B648019002944020039042
:1007700001200490002005904FF4806006908000D6
:10078000079080000890002009904FF440300A90B4
:1007900004200B9003200C904FF400000D9080106B
:1007A0000E906946A54803F0A9FB01221021A34839
:1007B00003F06BFC2021A14803F0F0FB01219F48CE
:1007C00003F0D6FB0FB030BD30B58FB004460D46F8
:1007D0004FF0FA51994803F044FC0021974803F088
:1007E000C7FB964803F0E8FA4FF000600090944889
:1007F00001900294002003900120049000200590B5
:100800004FF48060069080000790800008900020E0
:1008100009904FF440300A9004200B9003200C9074
:100820004FF400000D9080100E906946834803F04D
:1008300065FB01221021814803F027FC20217F481D
:1008400003F0ACFB01217D4803F092FB0FB030BDFB
:1008500010B5FFF7E1FE10BD2DE9F0410646002777
:1008600077484C38056802E075484C38056805F053
:1008700045000028F8D005F0040030B1032704201B
:1008800005F0EBF83846BDE8F08105F0010028B12D
:100890000127012005F0E1F83846F4E705F05BF8A0
:1008A000B04202D010273846EDE740F2FF5005F085
:1008B000D4F8002005F054F804466248204008B9F6
:1008C0003846E0E704F0004008B11C20DBE704F004
:1008D000804008B10920D6E704F0005008B10A2092
:1008E000D1E704F0805008B10B20CCE704F00060A1
:1008F00008B10C20C7E704F0806008B10D20C2E702
:1009000004F0807008B10E20BDE704F4000008B1C7
:100910000F20B8E704F4800008B11020B3E704F416
:10092000001008B11120AEE704F4801008B11220C5
:10093000A9E704F4002008B11320A4E704F4802000
:1009400008B114209FE704F4003008B115209AE79D
:1009500004F4803008B1162095E704F4004008B193
:10096000172090E704F4804008B118208BE704F4C6
:10097000005008B1192086E704F0080008B11A20D9
:1009800081E738467FE72DE9FC4107460D46002602
:10099000002400200090019008202B4908601020BE
:1009A0004860402088600020C8604FF48060086183
:1009B000084604F0B4FF1020FFF74EFF044614B1C0
:1009C0002046BDE8FC812148008800041E490860DB
:1009D00037204860402088600020C8604FF4806065
:1009E0000861084604F09BFF3720FFF735FF0446F7
:1009F0000CB12046E5E74FF0FF30154908600820AC
:100A00004860302088600220C86000200861012012
:100A10004861084604F0AFFF00200B49086033200E
:100A20004860402088600020C8604FF48060086102
:100A300008460FE000080240000C024058640240E3
:100A4000802C014008E0FFFD18010020200000205C
:100A50002C01002004F063FF3320FFF7FDFE044665
:100A60000CB12046ADE709E04FF4001004F0EAFFB6
:100A700020B104F0A6FF4DF82600761CFE48006861
:100A800040F22A6108400028EED0082004F0DAFF86
:100A900028B1082004F0E1FF0424204691E7022059
:100AA00004F0D0FF28B1022004F0D7FF0224204632
:100AB00087E7202004F0C6FF28B1202004F0CDFFF6
:100AC000062420467DE74FF4007004F0BBFF30B1F0
:100AD0004FF4007004F0C1FF0724204671E740F294
:100AE000FF5004F0BAFF00980006009901F47F411E
:100AF00040EA0120009901F47F0140EA11200099A9
:100B000040EA1160686001980006019901F47F4194
:100B100040EA0120019901F47F0140EA1120019986
:100B200040EA1160286020464BE77CB5054600246A
:100B300000200090019004F013FF00F0007010B14D
:100B40000E2420467CBDCD49098888B26946FFF74E
:100B50001AFF04460CB12046F4E7012D36D1019866
:100B600000F4802000282ED0C44800880004C44926
:100B7000086037204860402088600020C860A802D4
:100B80000861084604F0CBFE3720FFF765FE0446F7
:100B90000CB12046D6E70220B9490860062048601B
:100BA000402088600020C8604FF4806008610846DB
:100BB00004F0B5FE0620FFF74FFE04460CB12046B8
:100BC000C0E72046BEE725242046BBE7019800F495
:100BD000803078B3A94800880004A949086037200C
:100BE0004860402088600020C8604FF48060086141
:100BF000084604F094FE3720FFF72EFE04460CB1A1
:100C000020469FE700209E4908600620486040205B
:100C100088600020C8604FF480600861084604F0D6
:100C20007EFE0620FFF718FE04460CB1204689E739
:100C3000204687E7FFE72524204683E770B5044672
:100C4000002590480068032802D12725284670BD5A
:100C50008C48006838B18B480068012803D0894867
:100C6000006802282CD1B4F5805F02D127252846E0
:100C7000EDE7B4F5006F13D10120FFF756FF0546ED
:100C8000F5B90020804908750860486088604FF415
:100C90000060C86000200861084604F016FE0FE0FE
:100CA0000020FFF742FF054655B900207649087538
:100CB000086048608860C8600861084604F005FE66
:100CC0002846C4E770B504460D4600266C4804600B
:100CD00007206B494860402088600020C8604FF4BE
:100CE00080600861084604F01AFE0720FFF7B4FD93
:100CF0000646304670BDF0B5014600200022614B2B
:100D00001B7881F856305D4B1B88A1F854305F4B3F
:100D10001B681A0E93090B70C2F383034B7002F029
:100D200003038B70594B1B68C3F30742CA70574BC0
:100D30001B88C3F307220A71544B1A784A715B6807
:100D40001A0E1301CB80514B5B68C3F30742CB886B
:100D500043EA1213CB8002F00F030B724B4B9B88BC
:100D6000C3F30722D3094B72C2F380138B72C2F311
:100D70004013CB72C2F300130B7300234B73414B30
:100D80001B681BB13F4B1B68012B4FD193071B0DF9
:100D90000B613E4B1A790B6943EA82030B613B4BB3
:100DA0009B681A0E0B6943EA92130B61C2F3C203EC
:100DB0000B7502F007034B75344B9B68C3F3074276
:100DC00053098B75C2F38203CB7593075B0F0B76C8
:100DD0002E4B1B89C3F307220B7E43EAD2130B76FB
:100DE0000B695B1C0024C1E912340B7ED1E9124669
:100DF0009B1C012505FA03F3DF17A4FB035C06FB2C
:100E000003C304FB0733C1E912530C7A0123A34047
:100E10000B650027D1E912560B6DA5FB034C06FBB1
:100E200003C305FB0733C1E9124343E0154B1B68BD
:100E3000022B3FD1154B1A7993069B0A0B61134B7A
:100E40009B681A0E0B6943EA02230B610F4B9B68E8
:100E5000C3F307420B6913430B610C4B1B89C3F3AC
:100E600007220B6900245B1C44EB04074FF4007657
:100E70000025A3FB064C0BE0342C01402000002091
:100E8000180100201C000020000100207800002034
:100E900007FB06C603FB05664FF480650027A4FB2D
:100EA000053C06FB05C504FB0754C1E912344FF4A9
:100EB00000730B65C2F3801301F8193F93065B0EB4
:100EC0004B70F64B1A7A4B7843EAD2134B7002F010
:100ED0007F038B70F14BDB681A0ED309CB70C2F322
:100EE00041130B71C2F382034B7193071B0F8B717C
:100EF000EA4BDB68C3F307428B7943EA92138B71A9
:100F0000C2F34013CB7100230B7202F001034B724A
:100F1000E24B9B89C3F30722D3098B72C2F3801380
:100F2000CB72C2F340130B73C2F300134B73C2F3C3
:100F300081038B7302F00303CB73D84B1A7B5308E6
:100F40000B7401234B74D64B1B681A0ECA741939E3
:100F5000D34B1B68C3F307421402CC85D04B1B88CC
:100F6000C3F30722CB8D1343CB85CD4B1A781406E0
:100F70000C635B681A0E0B6B43EA02440C63C84BAC
:100F80005B68C3F307420B6B43EA02240C63C44B58
:100F90009B88C3F307220B6B13430B63C04B1A7977
:100FA00034235A54BE4B9B681A0E35235A54BC4BFB
:100FB0009B68C3F3074214068C63B94B1B89C3F3C8
:100FC00007228B6B43EA02448C63B54B1A7A8B6B16
:100FD00043EA02248C63B24BDB681A0E8B6B13431B
:100FE0008B63AF4BDB68C3F307423C235B5C43EA94
:100FF00012143C235C5413071C0DCC87A84B9B890F
:10100000C3F30722CB8F1343CB87A54B1A7B54081E
:1010100040235C54012441235C54F0BD70B500258D
:10102000A048046801E09F48046804F045000028D7
:10103000F9D004F0040028B10325042004F00DFDCC
:10104000284670BD04F0010028B10125012004F0FC
:1010500004FD2846F5E740F2FF5004F0FEFC284668
:10106000EFE72DE9F04106460F464FF000088D48A6
:10107000056801E08B48056805F045000028F9D0B7
:1010800005F0040038B14FF00308042004F0E5FC3B
:101090004046BDE8F08105F0010030B14FF0010895
:1010A000012004F0DAFC4046F3E704F054FCB042BF
:1010B00003D04FF010084046EBE740F2FF5004F039
:1010C000CCFC002004F04CFC044604F4604018B949
:1010D000200C38804046DCE704F4005008B11320AF
:1010E000D7E704F4804008B11020D2E704F40040B0
:1010F00008B10F20CDE74046CBE738B500240120EA
:10110000009004F006FC10B92524204638BD66483E
:101110000068042828D00020644908600220486044
:10112000C02088600020C8604FF4806008610846D5
:1011300004F0F5FBFFF772FF04460CB12046E5E72B
:10114000002004F00DFC56490860042004F008FC5F
:1011500053494860082004F003FC514988600C2082
:1011600004F0FEFB4E49C8604F48006858B14E4835
:101170000068012807D04C480068062803D04A4878
:101180000068022816D10020484908600320486002
:10119000402088600020C8604FF4806008610846E5
:1011A00004F0BDFB69460320FFF75BFF04460CB16A
:1011B0002046ABE73C48006804282ED0BDF800006C
:1011C0003B490860BDF80000000438490860092068
:1011D0004860C02088600020C8604FF480600861CB
:1011E000084604F09CFBFFF719FF04460CB12046AB
:1011F0008CE7002004F0B4FB28490860042004F0C8
:10120000AFFB26494860082004F0AAFB2349886008
:101210000C2004F0A5FB2149C8600024204675E796
:1012200070B500251F48046801E01E48046804F0FA
:1012300045000028F9D004F0040028B1032504205B
:1012400004F00BFC284670BD40F2FF5004F005FC92
:101250002846F8E770B500264FF480351148046839
:1012600002E06D1E0F48046804F0450008B9002D27
:10127000F7D115B104F0040028B10326042004F0CE
:10128000ECFB304670BD04F0400028B10026402041
:1012900004F0E3FB3046F5E73046F3E77800002042
:1012A00088000020342C01401C0000201801002080
:1012B0002000002070B500254FF4803400E0641E4B
:1012C00024B1802004F0BEFB0028F8D014B9032517
:1012D000284670BD40F2FF5004F0BFFB2846F8E7F7
:1012E000F8B5002000900025002400260027762075
:1012F000F84908750020086048608860C860086187
:10130000084604F0E2FA032004F0FFFA012004F09A
:10131000F9FA0020F049086048608860C8604FF41E
:1013200080600861084604F0FAFAFFF7C3FF0090F6
:101330009DF8000010B19DF80000F8BD4FF4D57085
:10134000E549086008204860402088600020C860A7
:101350004FF480600861084604F0E1FAFFF77AFF75
:1013600000909DF8000020B90120DC490860870743
:1013700012E00020D849086037204860402088608B
:101380000020C8604FF480600861084604F0C7FA86
:101390003720FFF761FA00900020CF49086037201E
:1013A0004860402088600020C8604FF48060086179
:1013B000084604F0B4FA3720FFF74EFA00909DF883
:1013C0000000002851D13BE00020C34908603720CD
:1013D0004860402088600020C8604FF48060086149
:1013E000084604F09CFA3720FFF736FA00909DF883
:1013F000000010B19DF800009FE7B9483843B64996
:10140000086029204860402088600020C8604FF4B0
:1014100080600861084604F082FAFFF701FF00903F
:101420009DF8000010B19DF8000086E7002004F050
:1014300097FA0546012080EAD57080F00106641C09
:101440001EB94FF6FF708442BED34FF6FF70844240
:1014500004D31B2000909DF800006EE705F080404B
:10146000051E02D002209D4908609DF8000064E737
:101470001CB5002001904FF4C06002F01DFA31202D
:101480008DF8000001208DF8010000208DF8020089
:1014900001208DF80300684602F013FA3B208DF816
:1014A000000001208DF80100684602F00AFAFFF7FB
:1014B000F9F804F0FFF9FFF713FF01909DF804001D
:1014C00010B19DF804001CBDFFF717FE01909DF8B8
:1014D000040010B19DF80400F5E700207D4908756F
:1014E000086048608860C8600861084604F0EDF94B
:1014F0007C48FFF700FC01909DF8040040B9794852
:10150000B0F85400020410460021FFF7DBFB019005
:101510009DF8040020B94FF40060FFF78FFB0190A5
:101520009DF80400CFE770B50446002514B92625C0
:10153000284670BD6C4800880004674908600D208B
:101540004860402088600020C8604FF480600861D7
:10155000084604F0E4F90D20FFF77EF905460DB1C9
:101560002846E6E7002004F0FBF920602846E0E783
:1015700008B5012000909DF8000008BD08B50020C6
:101580000090FFF7F5FF012809D16846FFF7CBFF70
:1015900008B1FF2008BD0098C0F34320FAE7FF2000
:1015A000F8E710B50424FFF7E9FF0446042C01D145
:1015B000002010BDFF2C01D10220FAE70120F8E73E
:1015C00010B50024002004F0A0F9204610BD70B52D
:1015D000044600260025002004F0C2F900F0007047
:1015E00010B10E26304670BD40203B4908601020E7
:1015F0004860402088600020C8604FF48060086127
:10160000084604F08CF91020FFF726F906460EB1C3
:101610003046E8E73448008800042F490860372046
:101620004860402088600020C8604FF480600861F6
:10163000084604F074F93720FFF70EF906460EB19C
:101640003046D0E74FF0FF3028490860402048601E
:10165000602088600220C860002008610120486185
:10166000084604F088F900201B4908600D204860F6
:10167000402088600020C8604FF480600861084600
:1016800004F04DF90D20FFF7E7F806460EB130469D
:10169000A9E70EE04FF4004004F0D4F948B100256A
:1016A00004E004F08EF944F825006D1C082DF8D3F1
:1016B00020340F48006840F22A6108400028E9D031
:1016C000082004F0BFF9A8B1082004F0C6F90426E8
:1016D000304688E700010020180100201C0000208F
:1016E00000001080A8000020200000202C01002015
:1016F000342C0140022004F0A5F928B1022004F0A6
:10170000ACF9022630466EE7202004F09BF928B1A0
:10171000202004F0A2F90626304664E74FF400705A
:1017200004F090F930B14FF4007004F096F90726F8
:10173000304658E74FF0FF3504E004F042F92060EE
:10174000241D6D1E4FF4001004F07CF908B1002D2B
:10175000F3D140F2FF5004F080F9304643E770B512
:10176000044600260025FE48FFF731FF06460EB16D
:10177000304670BDFA48007885092570F848007831
:10178000C0F340156570F648857828026080F448FB
:10179000C578608828436080F14805792806606034
:1017A000EF484579606840EA05406060EC4885791B
:1017B000606840EA05206060E948C57960682843B0
:1017C0006060E748057A2572457A6572807A050976
:1017D000A572E348C57A2802A081E148057BA0896B
:1017E0002843A081DE48407B8508A573DC48407B08
:1017F00000F00305E5733046BBE72DE9F041804674
:1018000014461D46069E00270020D6490870D6497A
:101810000860D6490860D6490860012140F22A30A4
:1018200004F0FFF8012004F0F8F831464046FEF7D6
:10183000CBFFD0480068022808D10602020200232C
:101840002046294608F0BDF804460D46CA48066001
:101850001020C9494860402088600020C8604FF4CB
:1018600080600861084604F05AF81020FEF7F4FF83
:10187000074617B13846BDE8F0814FF0FF30BF4949
:10188000086008464660902088600220C8600020FA
:10189000086101204861084604F06DF8B64804600C
:1018A0001120B5494860402088600020C8604FF48E
:1018B00080600861084604F032F81120FEF7CCFF82
:1018C00007460FB13846D6E73846D4E72DE9F0474A
:1018D000814614461D46DDE9086800270020A1491D
:1018E0000870A14908600120A04908600020A049B3
:1018F0000860012140F22A3004F093F808FB06F159
:101900004846FEF761FF012004F087F89948006817
:10191000022808D10602020200232046294608F0C8
:1019200050F804460D4694480660102092494860DD
:10193000402088600020C8604FF48060086108463D
:1019400003F0EDFF1020FEF787FF074617B138467A
:10195000BDE8F0874FF0FF308849086008FB06F0CB
:101960004860902088600220C86000200861012043
:101970004861084603F0FFFF7F48046012207E495B
:101980004860402088600020C8604FF48060086193
:10199000084603F0C4FF1220FEF75EFF07460FB1B2
:1019A0003846D5E73846D3E710B500240020724901
:1019B00008600C204860402088600020C8604FF418
:1019C00080600861084603F0AAFF0C20FEF744FF80
:1019D0000446204610BD70B500256C1E00E0641E54
:1019E0006748006838B96048006820B95D480078E9
:1019F00008B9002CF3D1002061490860441E00E0C2
:101A0000641E5B480830006800F4005008B1002CE8
:101A1000F6D156480068012805D1FFF7C5FF0546F5
:101A20000020524908600CB905B9042540F2FF5066
:101A300004F013F84B48007810B14A48007870BDA4
:101A40002846FCE72DE9F041804614461D46069ED7
:101A50000027002043490870434908604349086053
:101A600043490860012140F22A3003F0DAFF314691
:101A70004046FEF765FE012003F0CFFF3D480068B9
:101A8000022808D10602020200232046294607F058
:101A900098FF04460D4638480660102036494860D5
:101AA000402088600020C8604FF4806008610846CC
:101AB00003F035FF1020FEF7CFFE074617B138467A
:101AC000BDE8F0812C48046018202B494860402074
:101AD00088600020C8604FF480600861084603F009
:101AE0001EFF1820FEF7B8FE07460FB13846E7E79D
:101AF0004FF0FF302149086008464660902088601A
:101B00000020C860086101204861084603F033FFE7
:101B10003846D5E72DE9F047814615461E46DDE9F2
:101B20000878002400200F4908700F490860012040
:101B30000E49086000200E490860012140F21A3069
:101B400003F06FFF08FB07F14846FEF7F9FD01209F
:101B500003F063FF0748006802281BD1070211E069
:101B600098000020280000202C00002024000020E5
:101B70002C2C01401C000020180100202C0100200A
:101B800030000020020200232846314607F019FFEA
:101B900005460E46FE4807601020FD49486040207B
:101BA00088600020C8604FF480600861084603F038
:101BB000B6FE1020FEF750FE044614B12046BDE8E4
:101BC000F087F44800880004F14908603720486035
:101BD000402088600020C8604FF48060086108469B
:101BE00003F09DFE3720FEF737FE04460CB1204679
:101BF000E5E7E748C0F800801720E5494860402045
:101C000088600020C8604FF480600861084603F0D7
:101C100086FE1720FEF720FE04460CB12046CEE7D4
:101C2000DB4805601920DA494860402088600020C0
:101C3000C8604FF480600861084603F070FE192008
:101C4000FEF70AFE04460CB12046B8E74FF0FF301D
:101C5000D149086008FB07F04860902088600020A8
:101C6000C860086101204861084603F084FE2046F0
:101C7000A5E770B500256C1E00E0641EC74800682B
:101C800038B9C748006820B9C648007808B9002CA0
:101C9000F3D10020C1490860441E00E0641EC24820
:101CA000006800F4805008B1002CF7D1BF480068EC
:101CB000012805D1FFF778FE05460020BB490860E2
:101CC0000CB905B9042540F2FF5003F0C6FEB54833
:101CD000007810B1B348007870BD2846FCE7B248E0
:101CE000006800F4405008B1012070470020FCE774
:101CF0007CB504460025002001900090A54800888E
:101D00000004A34908600D2048604020886000203E
:101D1000C8604FF480600861084603F000FEA248E6
:101D20000068009002E0A04800680090009800F071
:101D300045000028F7D0009800F0040028B10325E2
:101D4000042003F08AFE28467CBD009800F00100C4
:101D500028B10125012003F080FE2846F4E703F0B6
:101D6000FAFD009000980D2802D010252846EBE7D8
:101D700040F2FF5003F071FE002003F0F1FD0190EE
:101D80000198C0F34320207089490198084008B9A0
:101D90002846D9E7019800F0004008B11C20D3E79D
:101DA000019800F0804008B10920CDE7019800F0CB
:101DB000005008B10A20C7E7019800F0805008B130
:101DC0000B20C1E7019800F0006008B10C20BBE7D0
:101DD000019800F0806008B10D20B5E7019800F08F
:101DE000807008B10E20AFE7019800F4000008B140
:101DF0000F20A9E7019800F4800008B11020A3E7A4
:101E0000019800F4001008B111209DE7019800F43A
:101E1000801008B1122097E7019800F4002008B163
:101E2000132091E7019800F4802008B114208BE77B
:101E3000019800F4003008B1152085E7019800F4FE
:101E4000803008B116207FE7019800F4004008B107
:101E5000172079E7019800F4804008B1182073E753
:101E6000019800F4005008B119206DE7019800F0C6
:101E7000080008B11A2067E7284665E72DE9FC4706
:101E800005460E46174698460024A14600200190BC
:101E9000009048484068202101EA105018B92524D4
:101EA0002046BDE8FC87404830380068C0B2801C3E
:101EB0004149B1FBF0F00190002003F051FD00F02A
:101EC000007010B10E242046EBE73C480068022861
:101ED00010D1020200232846314607F072FD054664
:101EE0000E464FF4007200233846414607F069FD64
:101EF000074688463148006838B1304800680128F4
:101F000003D02E48006802282BD1214805602020EC
:101F10001F494860402088600020C8604FF48060FE
:101F20000861084603F0FBFC2020FEF795FC044600
:101F30000CB12046B5E716480760212014494860D7
:101F4000402088600020C8604FF480600861084627
:101F500003F0E5FC2120FEF77FFC04460CB120468F
:101F60009FE700200A4908602620486040208860DA
:101F70000020C8604FF480600861084603F0CFFC81
:101F80002620FEF769FC0446D4B1204689E700000C
:101F900018010020200000202C010020300000202B
:101FA0002C00002028000020342C014024000020B8
:101FB00008E0FFFD78000020C0D401001C000020D4
:101FC0004FF0000901E009F1010901988145FAD3B8
:101FD0006846FFF78DFE04464FF0FF3905E068467E
:101FE000FFF786FE0446A9F10109B9F1000F08D0F8
:101FF0003CB99DF800000728F1D09DF800000628A4
:10200000EDD020464DE710B54FF4807003F029FD68
:1020100050B100209B4908704FF4807003F02CFDF4
:1020200001209949086037E0022003F01AFD30B121
:10203000022003F021FD0220924908702CE00820C4
:1020400003F00FFD30B1082003F016FD04208D4988
:10205000087021E0202003F004FD30B1202003F0BF
:102060000BFD06208749087016E0102003F0F9FCEC
:1020700030B1102003F000FD0520824908700BE00C
:102080004FF4007003F0EDFC30B14FF4007003F03A
:10209000F3FC07207B49087000214CF23A3003F032
:1020A000C0FC7848007810BD10B57848006800F092
:1020B000C05040B10120764908604FF0C2517348CA
:1020C000583001F0CEFF10BD0146002002E049105B
:1020D000421CD0B20129FAD17047F0B593B0002567
:1020E0000020119012900027402101A807F0CAFE9D
:1020F000002401AE00206349087063490860654907
:102100000860654908606549098888B211A9FEF729
:102110003AFC054615B1284613B0F0BD129800F000
:10212000807018B9129800F0007008B1012000E02A
:1021300000200746002F72D0402059490860102027
:102140004860402088600020C8604FF480600861CB
:10215000084603F0E4FB1020FEF77EFB05460DB1B8
:102160002846D9E74FF0FF304E49086040204860CC
:10217000602088600220C86000200861012048615A
:10218000084603F0F8FB48484549086006204860C7
:10219000402088600020C8604FF4806008610846D5
:1021A00003F0BDFB0620FEF757FB05460DB12846A0
:1021B000B2E70EE04FF4004003F044FC48B10024C5
:1021C00004E003F0FEFB46F82400641C082CF8D35E
:1021D000203631480830006840F22A610840002863
:1021E000E8D0082003F02EFC28B1082003F035FCCD
:1021F0000425284690E7022003F024FC28B10220A1
:1022000003F02BFC0225284686E7202003F01AFC69
:1022100030B1202003F021FC062528467CE727E08A
:102220004FF4007003F00EFC30B14FF4007003F077
:1022300014FC072528466FE74FF0FF3404E003F055
:10224000C0FB3060361D641E4FF4001003F0FAFB33
:1022500008B1002CF3D140F2FF5003F0FEFB9DF8D3
:10226000110000F00200022801D1002500E027251E
:10227000284651E710B5FFF7C6FE10BD10B5FFF7B1
:1022800013FF10BD280000202C0000200064024035
:1022900030000020240000202C2C014020000020D1
:1022A000180100202C01002001FFFF801CB5002038
:1022B0008DF8070001208DF804008DF805008DF8D9
:1022C000060001A9002003F045FD43F2F2210020A1
:1022D00004F08FF901208DF800008DF802008DF8D0
:1022E00001008DF803006946002003F0D1FD43F2A0
:1022F000F221002004F07DF91CBD0EB50121080774
:1023000002F051F9012004F082FA012001F0B6FF39
:1023100000BF612001F054FF0028FAD04FF4007094
:1023200002F096F8012002F0AEF803F0B1FB7F2036
:102330000190FF20029000200090684603F06FFC9F
:1023400010B958A007F0B4FB0EBD10B5FFF7D5FFCC
:10235000002004F05BF943F2F221884202D0FFF73B
:10236000A5FF0FE07B2001F02BFF10B97A2001F0D0
:1023700027FF0121080702F016F9012004F047FAAF
:1023800003F086FB10BD9EB000243DE004A90020B0
:1023900003F04AFD03A9002003F0E0FD9DF81200C0
:1023A000A0422FD09DF80C0000909DF80E309DF8B3
:1023B0000D209DF80F1042A007F07AFB9DF80C004D
:1023C0009DF80E10CDE900109DF80D309DF80F20FE
:1023D00049A105A807F078FB9DF812309DF811205F
:1023E0009DF810104FA007F063FB9DF812000090BD
:1023F0009DF811309DF8102053A105A807F064FB4B
:10240000594800689DF81240C0E71FB500200390AE
:1024100000240121080702F0C6F8012004F0F7F9B2
:10242000012001F014FF00BF412001F0C9FE044665
:10243000BDF80C00401C80B2039024B9BDF80C001C
:10244000B0F5A04FF0D1012C06D148A007F030FB29
:10245000200201F0FDFF12E049A007F029FB012056
:1024600001F00CFF00BF612001F0AAFE0028FAD0A5
:102470004AA007F01DFB4FF4007001F0E9FF0120B6
:1024800002F001F803F004FB7F200190FF2002908E
:1024900000200090684603F0C2FB10B901A007F0CD
:1024A00007FB1FBD0A0D2052544320CAB1D6D3B337
:1024B000F5CABCBBAFCAA7B0DC200D0A0000000003
:1024C0005468652044617465203A2020593A3230BE
:1024D00025302E3264202D204D3A25302E326420B6
:1024E0002D20443A25302E3264202D20573A2530B5
:1024F0002E32640D0A000000546865204461746542
:102500003A593A323025302E32642D4D3A25302E4C
:1025100032642D443A25302E32642D573A25302E20
:10252000326400005468652054696D65203A2020AB
:1025300025302E32643A25302E32643A25302E3240
:1025400064200D0A0D0A00005468652054696D6509
:10255000203A202025302E32643A25302E32643A3B
:1025600025302E3264000000042800400A0D204C63
:10257000534520C6F4B6AFB3C9B9A6200D0A000072
:102580000A0D204C534520B9CAD5CFA3ACD7AACE4B
:10259000AACAB9D3C34C5349200D0A000A0D204CD6
:1025A000534920C6F4B6AFB3C9B9A6200D0A00003E
:1025B0001CB50121202001F0ADFF4FF4C060009058
:1025C00001208DF8040000208DF8060003208DF80E
:1025D000050001208DF807006946044801F028FB3A
:1025E0004FF4C061014801F09FFB1CBD0014024084
:1025F0001CB50121032001F08DFF4FF440700090C5
:1026000000208DF8040003208DF8050001208DF8CE
:1026100007006946594801F00BFB01200090022099
:102620008DF807006946564801F002FB1CBD10B545
:102630005448008800280CDD53480088401C52494B
:10264000088008460088642803DD002008804D4982
:1026500008804C48408800280CDD4B484088401CCE
:102660004949488008464088642803DD00204880A6
:10267000444948804348808800280CDD42488088CF
:10268000401C4149888008468088642803DD00207A
:1026900088803C4988804FF40071384801F02AFB5B
:1026A00058B14FF48071354801F024FB28B1012165
:1026B000334801F01FFB01284AD10020334908703C
:1026C00001212F4801F016FB012811D12D48008867
:1026D000401C2C4908800846008805284DDB002056
:1026E000294908802749088001202949087044E0C9
:1026F0004FF40071214801F0FDFA88B92148408863
:10270000401C2049488008464088052835DB0020C9
:102710001D4948801B49488002201D4908702CE053
:102720004FF48071154801F0E5FA30BB15488088F8
:10273000401C144988800846808805281DDB00203D
:10274000114988800F49888003201149087014E0DE
:102750004FF40071094801F0CDFA01280DD10102B2
:10276000064801F0C7FA012807D10121044801F009
:10277000C1FA10B901200549087010BD00040240DB
:1027800000000240360000203C0000203500002000
:102790003400002010B5012001F0B3F9012811D157
:1027A00000F0D2FD012001F0B8F98E48006808B9A8
:1027B000012000E000208B4908608B480078401C15
:1027C0008949087010BDF0B58FB004460D46164615
:1027D0001F460121880501F09DFE844801F0ECFAB6
:1027E00000BF824801F011FC0028FAD14FF00070C0
:1027F00000907F480190029400200390049505907A
:1028000006974FF4805007900896001109904002F7
:102810000A9004200B9003200C9000200D900E9045
:102820006946724801F06AFB0FB0F0BD0EB5012198
:10283000172001F06FFE0121084601F07CFE5020B8
:10284000019002208DF8080000208DF80A00032076
:102850008DF8090001208DF80B0001A9654801F0F1
:10286000E7F9C020019001A9634801F0E1F9C02017
:10287000019001A9614801F0DBF97320019001A9E1
:102880005F4801F0D5F90D2204215A4801F05BFAA6
:102890000D220621574801F056FA0D22072156480D
:1028A00001F051FA0D220621544801F04CFA0D2294
:1028B0000721524801F047FA0D220021504801F04B
:1028C00042FA0D2201214E4801F03DFA0D22042169
:1028D0004B4801F038FA0D220621474801F033FA3F
:1028E0000D220521464801F02EFA0D22062144480A
:1028F00001F029FA4FF48071424801F017FA01F013
:102900004BF80020404908804881888108812020B8
:10291000888000204880C880084601F049F80121DD
:10292000084601F0C5F8012001F0A1F84E208DF80D
:10293000000002208DF8010003208DF80200012024
:102940008DF80300684600F0BCFF0EBD10B50121F4
:10295000264801F00DFB012001F098F810BD10B5DC
:10296000002001F093F800BF21482838006800F0EB
:1029700001000028F8D100211C4801F0F9FA10BD2F
:102980002DE9F04106460F4614461D46FFF7E7FFC6
:102990002946204600F078FA0121144801F0E8FAAF
:1029A000012001F073F8BDE8F08170B504460E46D1
:1029B000154600F0F1FF0020134908804881888106
:1029C000B00108816001888000204880E801C8804B
:1029D000084600F0EDFF012001F058F8012001F059
:1029E00046F870BDA48242424200002028640240A2
:1029F0002800055000000240000402400008024088
:102A00000010024000140240440100207CB5002563
:102A10000121602001F07EFD4FF402400090012072
:102A20008DF8040000208DF8060002208DF80500C6
:102A300001208DF807006946FE4801F0F9F84FF4CF
:102A40008070009001208DF8040000208DF80600B1
:102A500002208DF8050001208DF807006946F64830
:102A600001F0E6F80020F5490860F549C1F8A40234
:102A70000A2000F039FE0020F24908600A2000F028
:102A800033FE0120EE49C1F8BC0200F0C7FA012173
:102A9000FF2000F0B1FB8021122000F0ADFB3220BE
:102AA00000F022FE1C2000F0C6FB04464FF6FF702B
:102AB00000EA04241D2000F0BEFB044347F6A27088
:102AC000844201D001207CBD0A2000F0B4FB044602
:102AD0004FF6FF7000EA04240B2000F0ACFB044327
:102AE00042F24260844201D0012000E0002042F224
:102AF00041618C4201D0012100E00021084008B171
:102B00000220E0E700250FE0CF4A02EB45025178B2
:102B1000CD4A12F8150000F06FFB0A2D02DA0520ED
:102B200000F0E2FD681C85B2B42DEDD30020CAE7A9
:102B300010B5002400BF0AE0C44A02EB44025178F9
:102B4000C24A12F8140000F057FB601C84B2082C33
:102B5000F2D300240AE0BE4A02EB44025178BC4A98
:102B600012F8140000F048FB601C84B2072CF2D36A
:102B700010BD10B5002400BF0AE0B64A02EB4402C3
:102B80005178B44A12F8140000F036FB601C84B28D
:102B90000E2CF2D310BD70B50546AF4800EBC5064C
:102BA000002409E0012202EB4402B15C16F8140093
:102BB00000F022FB601CC4B2042CF3DB70BD2DE9D5
:102BC000F04104465E254126542734B1022C0ED034
:102BD000032C10D0042C16D111E00021FF2000F0AE
:102BE0000BFB0021C72000F007FBBDE8F081652545
:102BF00041264F2707E052254126662703E042255C
:102C00003F26712700BF00BF0021FF2000F0F4FA2B
:102C10004021C72000F0F0FA2946CC2000F0ECFA61
:102C20003146CD2000F0E8FA3946CE2000F0E4FA33
:102C300000BFDAE770B50446A01C082141EA001085
:102C4000C5B20021FF2000F0D7FA00217C2000F05F
:102C5000D3FA02217D2000F0CFFA03217C2000F07E
:102C6000CBFA29467D2000F0C7FA29467D2000F0E6
:102C7000C3FA70BD10B504460021FF2000F0BCFA75
:102C800000217C2000F0B8FA04217D2000F0B4FA85
:102C900009217C2000F0B0FA2007010E7D2000F011
:102CA000ABFA00217D2000F0A7FA10BD70B50446F4
:102CB0002025202634B1012C07D0032C08D0042C69
:102CC0000CD108E01825342608E01C252A2605E04A
:102CD0002425162602E028250C2600BF00BF00216F
:102CE000FF2000F089FA00217C2000F085FA042101
:102CF0007D2000F081FA07217C2000F07DFA202160
:102D00007D2000F079FA29467D2000F075FA3146E1
:102D10007D2000F071FA06217D2000F06DFA70BD73
:102D20002DE9F0410446002580268027072C19D282
:102D3000DFE804F0180406080C101400402511E028
:102D400018250FE018254026C0270BE0182540263F
:102D5000402707E01825A026402703E01825402635
:102D6000A62700BF00BF0021FF2000F045FA002188
:102D70007C2000F041FA29467D2000F03DFA052133
:102D80007C2000F039FA31467D2000F035FA3946D2
:102D90007D2000F031FABDE8F08170B505460121D3
:102DA000FF2000F029FA122000F045FA044624F032
:102DB00002040DB144F002042146122000F01CFA76
:102DC00070BD2DE9F04705460E4617469846384631
:102DD00007EBD07105EB61011FFA81F9404608EB62
:102DE000D07106EB61011FFA81FA0121FF2000F08A
:102DF00003FA032000F01FFA044604F0F0040AF07E
:102E00000301304661F39F0004432146032000F094
:102E1000F3F9C6F38701192000F0EEF9CAF3870130
:102E20001A2000F0E9F9322000F005FA044604F017
:102E3000C00413E00018024000140240A082424285
:102E400000004342BC02434284A1000878A4000869
:102E50004EA400085CA4000888A4000809F007013B
:102E6000284661F3DF0004432146322000F0C4F914
:102E7000C5F3C701172000F0BFF9C9F3C701182037
:102E800000F0BAF9BDE8F0872DE9F04104460D469F
:102E9000E11704EB91718910A4EB810111B10120BC
:102EA000BDE8F081E91705EB91718910A5EB81016F
:102EB00009B10220F4E72046E11704EB9171C1F358
:102EC0008F072846E91705EB9171C1F38F060021A2
:102ED000FF2000F091F90421E02000F08DF9F9B213
:102EE0005A2000F089F9F1B25B2000F085F9C7F3B0
:102EF0000128042000EAA61040EA080841465C20A8
:102F000000F07AF90021E02000F076F90020C7E710
:102F10002DE9F0478046894614461D46E11704EB2B
:102F200091718910A4EB810111B10120BDE8F087F6
:102F3000E91705EB91718910A5EB810109B1022018
:102F4000F4E72046E11704EB9171C1F38F062846A0
:102F5000E91705EB9171C1F38F0A0021FF2000F002
:102F60004BF90421E02000F047F9F1B2512000F0C4
:102F700043F90AF0FF01522000F03EF908F0FF018A
:102F8000532000F039F909F0FF01542000F034F922
:102F9000802000EA6A07702000EA29100743082011
:102FA00000EA66100743C8F302200743394655205C
:102FB00000F022F9802000EAA601572000F01CF959
:102FC0000021E02000F018F90020AFE770B50446BA
:102FD0000D460021FF2000F00FF90421E02000F051
:102FE0000BF9C4F3C701C02000F006F9C5F3C7010F
:102FF000C12000F001F96007860E05F007000643C6
:10300000802000EA2410064331468C2000F0F4F8BA
:103010000021E02000F0F0F8002070BD1CB5012177
:10302000082001F077FAC020009001208DF80400FC
:1030300000208DF8060002208DF8050001208DF893
:10304000070069468F4800F0F3FDC0218D4800F06D
:103050006BFE8C48006820F440408A4908600846AE
:10306000006840F4804008601CBD10B5012086490E
:1030700008608649C1F89802322000F0EDFA00207D
:1030800081490860322000F0E7FA00207F49C1F84A
:10309000980210BD10B500207B490860322000F076
:1030A000DBFA01207949C1F89802322000F0D4FA05
:1030B000012075490860322000F0CEFA10BD10B52D
:1030C000322000F0C9FA01206F4908606F49C1F849
:1030D0009802322000F0C0FA00206B49091F0860F6
:1030E000322000F0B9FA00206849C1F89C02322071
:1030F00000F0B2FA10BD70B5044600261BE004F0E3
:10310000800018B101206049086002E000205E499B
:1031100008606006040E322000F09EFA01205A4931
:10312000091F0860322000F097FA00205749C1F8C3
:103130009802701CC6B2082EE1DB5248006820F4E9
:10314000404050490860084600680860322000F09E
:1031500083FA01204C49091F0860322000F07CFAF4
:103160004A48D0F81C0208B1012500E000250020E3
:103170004549091F08604348006820F44040414920
:1031800008600846006840F480400860284670BD2A
:1031900070B500243B48006820F44040394908607D
:1031A000084600680860082517E0322000F054FA4D
:1031B00001203549091F08606006040E3348D0F825
:1031C0001C0208B1601CC4B2322000F045FA002095
:1031D0002D49091F0860681EC5B2002DE5DC29488D
:1031E000006820F44040274908600846006840F421
:1031F00080400860204670BD70B505460C4600262C
:10320000FFF733FF6020FFF776FF00B1012664204F
:1032100000F022FA2846FFF76EFF00B10126642075
:1032200000F01AFA2046FFF766FF00B10126FFF70B
:1032300031FF304670BD70B504460025FFF715FF1D
:103240006020FFF758FF642000F006FA2046FFF7E1
:1032500052FF642000F000FAFFF71CFF642000F02A
:10326000FBF9FFF702FF6120FFF745FF642000F044
:10327000F3F9FFF78DFF0546FFF721FFFFF70AFF80
:10328000284670BD000C02409C82414200804142B1
:103290007FB504460D460121022001F084F9ADF806
:1032A00004500020ADF806000294ADF80C0001A90E
:1032B000214801F05AFD012211461F4802F0F6F99B
:1032C00001211D4801F0DAFD1D208DF800000120CC
:1032D0008DF8010003208DF8020001208DF8030015
:1032E000684600F0EEFA7FBD10B50121124802F0E9
:1032F000F4F901281BD111480078401C0F490870CF
:1033000008460078642810DB002008700C4800682C
:1033100008B9012000E00020094908600948007848
:10332000012802D0012007490870FFF780F9012128
:10333000014802F0E3F910BD000400404300002002
:10334000A88242420400002010B57B48007898B95A
:1033500000217A4800F00CFE00BF784800F055FECE
:103360000028FAD1754800F026FEC0F5F8407449EF
:1033700008600120704908706F48007802280FD15A
:103380004FF4F8406D49091D086001466B4800F094
:1033900010FE0121694800F0EBFD0020664908702D
:1033A00010BD0FB42DE9F04FADF2CC4D0646002014
:1033B000CDF8C004FFF7BCFBFFF738FA4FF4806389
:1033C0001A014FF4F8415F48FFF7FDF94FF4167109
:1033D0004FF44870FFF758FDFFF7B8FAAAE05648D7
:1033E00000780128FAD1574D02A9002002F0B6FD5D
:1033F0009DF80A0000909DF809309DF80B2052A11D
:10340000FEA806F061FB03A9002002F00DFD9DF867
:103410000E0000909DF80D309DF80C204FA10DF28C
:103420005C4006F051FB4FF000090020CDF8C004CD
:1034300000241AE0285DFF2807D1601C285CD828EA
:1034400003D1A0460120CDF8C004285DFF280BD190
:10345000601C285CD92807D1DDF8C00420B1A4EB9A
:10346000080000F1020905E0641C35480068B4EB6F
:10347000800FDFD300BF0DF25C43FEAA3CA104A87D
:1034800006F022FB04A806F083FC0DF59962111FDB
:103490003AA005F061FB07461FB1394638A006F097
:1034A00007FBDDF8C8044069801EDDF8C814897880
:1034B00000FB01FBDDF8C8048078DDF8C41400FBD4
:1034C00001FA4FEA5A024FEA5B0131A006F0F0FA26
:1034D0004544B9F1000F26D00A2204A90DF2F440A8
:1034E00004F024FF0646DEB936A006F0E1FA4A46AB
:1034F00041F218536B4429460DF2F44005F0C4F82C
:10350000064626B9314636A006F0D2FA03E0314627
:1035100037A006F0CDFA0DF2F44005F013FA02E000
:1035200039A006F0C5FA0220034908704FF47A70FA
:1035300000F0DAF853E70000480000202864024059
:103540004400002054010020323025302E32642DFA
:1035500025302E32642D25302E32640025302E3257
:10356000642D25302E32642D25302E32640000006B
:1035700025732D2D2D25732E6A706700303A0000BB
:10358000B3F6CFD6B4EDCEF3A3A82564A3A900006B
:103590002531306C75204B694220746F74616C204A
:1035A00064726976652073706163652E0A25313017
:1035B0006C75204B694220617661696C61626C6553
:1035C0002E0A0000A1B7B4F2BFAA2FB4B4BDA8B2AE
:1035D000E2CAD4CDBCC6ACB3C9B9A60D0A0000007E
:1035E000D0B4C8EBCDEAB3C93A282564290A000053
:1035F000A3A1A3A1CEC4BCFED0B4C8EBCAA7B0DCC3
:10360000A3BA282564290A00A3A1A3A1B4F2BFAAE2
:103610002FB4B4BDA8CEC4BCFECAA7B0DCA1A30D14
:103620000A00000010B504466FF0040000F096F99F
:10363000E11704EB5171C1F3C701394A117010460B
:10364000007800EB4001C1EBC0104FF6FF7101EABA
:10365000C0003449088010BD0146314A12784A43FF
:103660004FF0E0235A6100229A611A46126942F033
:1036700001021A6100BF4FF0E022106900F0010260
:103680001AB100F48032002AF5D04FF0E02212691E
:1036900022F001024FF0E0231A6100229A61704784
:1036A0000146204A12884A434FF0E0235A61002223
:1036B0009A611A46126942F001021A6100BF4FF086
:1036C000E022106900F001021AB100F48032002AF1
:1036D000F5D04FF0E022126922F001024FF0E02312
:1036E0001A6100229A61704770B504464FF4077062
:1036F00094FBF0F0C6B24FF4077094FBF0F100FBBE
:10370000114085B205E04FF40770FFF7C9FF701E46
:10371000C6B2002EF7D115B12846FFF7C1FF70BD24
:103720004A0000204C00002000BF704700BF4E4AF6
:10373000128802F04002002AF9D0C2B24A4B9A80A5
:10374000704710B588B004460121084600F0E2FE3B
:103750000121102000F038FF07220921434800F022
:10376000F2FA07220A21414800F0EDFA4FF4C06056
:10377000069002208DF81C008DF81D0000208DF8A9
:103780001E0001208DF81F0006A9384800F050FAED
:1037900002940020ADF80C00ADF80E00ADF810005A
:1037A000ADF814000C20ADF8120002A92E4801F06B
:1037B0006CF801212C4801F0F0F840212A4801F072
:1037C000D4F9012240F22551274801F09CF9252027
:1037D0008DF8040003208DF805008DF80600012007
:1037E0008DF8070001A800F06CF808B010BD10B506
:1037F00040F225511C4801F0C1F910B31A4801F0FC
:10380000FBF8C4B21A48008800F40040C8B9184850
:10381000008800F4804060B10A2C03D000201449D5
:10382000088020E01248008840F4004010490880D9
:1038300019E00D2C06D10E48008840F480400C4958
:10384000088010E00A480088C0F30D0009490C54B4
:1038500007480088401C0649088008460088C72899
:1038600001DD0020088010BD001001400000024072
:103870005400002054F101200948804709480047BE
:10388000FEE7FEE7FEE7FEE7FEE7FEE7FEE7FEE710
:10389000FEE7FEE704480549054A064B704700006D
:1038A000E50400088901000880F2012080FC012065
:1038B00080F4012080F4012032490143324A116032
:1038C000704770B5002100230F22C4781CB32E4C22
:1038D000246804F4E064C4F5E064C4F30721C1F192
:1038E0000404E3B20A4144789C40E1B28478144075
:1038F00021430C07210E254C05786155047804F00E
:103900001F050124AC4005786D11AD0005F1E025DF
:10391000C5F8004109E0047804F01F050124AC401B
:103920001B4D0678761145F8264070BD194A0A40AD
:103930000243154B1B1F1A60704739B1124A121D02
:1039400012680243104B1B1D1A6006E00E4A121D3E
:10395000126882430C4B1B1D1A607047042808D163
:103960004FF0E021096941F004014FF0E0221161BC
:1039700007E04FF0E021096921F004014FF0E02257
:10398000116170470000FA050CED00E000E400E072
:1039900080E100E080FFFF1F002061490860C860EF
:1039A0001F20486100208861C86108624862704732
:1039B00000215B4A126844F201039A43584B1A6093
:1039C0001A46116840F6F2729143028843881A43FE
:1039D00083881A43C3881A4303891A4343891A43C5
:1039E00083891A4311434E4A1160704700210180B8
:1039F00041808180C18001814181818170474188FE
:103A0000028841EA0241464A1162C188828841EA3D
:103A10000241434A5162704730B14149096841F05F
:103A200004013F4A116005E03D49096821F00401A5
:103A30003B4A116070470178427841EA022182785E
:103A400041EA0241C27841EA0261354A9161704718
:103A500030B13349096841F00801314A116005E08D
:103A60002F49096821F008012D4A1160704730B1D3
:103A70002B49096841F48041294A116005E0284931
:103A8000096821F48041264A1160704730B1244909
:103A9000096841F00101224A116005E020490968E6
:103AA00021F001011E4A116070471D48806A70476D
:103AB00029B11B4AD2680243194BDA6006E0184A62
:103AC000D268C3439BB21A40154BDA60704710B5F9
:103AD0000146002000230A1312B9114CA36806E026
:103AE000022A02D10E4C636801E00D4C236903EAFF
:103AF00001040CB1012000E0002010BD084948611C
:103B00007047014600200022054B1B6903EA0102B1
:103B10000AB1012000E00020704701494861704768
:103B20000000055010B504469848844208D1012190
:103B3000084600F05AFD0021012000F056FD76E015
:103B40009348844208D10121022000F04EFD00215B
:103B5000022000F04AFD6AE08E48844208D101212B
:103B6000042000F042FD0021042000F03EFD5EE054
:103B70008948844208D10121082000F036FD002147
:103B8000082000F032FD52E08448844208D101212F
:103B9000102000F02AFD0021102000F026FD46E054
:103BA0007F48844208D10121202000F01EFD002121
:103BB000202000F01AFD3AE07A48844208D1012121
:103BC000402000F012FD0021402000F00EFD2EE00C
:103BD0007548844208D10121802000F006FD0021B3
:103BE000802000F002FD22E07048844208D10121CB
:103BF000801500F0FAFC0021A01500F0F6FC16E09C
:103C00006B48844208D10121401500F0EEFC0021F0
:103C1000601500F0EAFC0AE06648844207D1012101
:103C2000001500F0E2FC0021201500F0DEFC10BDC4
:103C3000F0B50A4600210023002400BF3DE0012525
:103C400005FA01F3156805EA03049C4234D10568BE
:103C50004F000326BE40B543056015794E00B540C0
:103C60000668354305601579012D02D01579022DBE
:103C700016D185684F000326BE40B543856055794F
:103C80004E00B540866835438560456801268E4004
:103C9000B5434560456896798E40B6B23543456078
:103CA000C5684F000326BE40B543C560D5794E00B8
:103CB000B540C6683543C560491C1029BFD3F0BD67
:103CC0004FF6FF7101600021017141718171C17175
:103CD000704708B54FF480320092009A0A43009270
:103CE000009AC261C161009AC261C2690092C26950
:103CF000009208BD0246002013690B400BB1012061
:103D000000E0002070470146086980B27047024613
:103D1000002053690B400BB1012000E000207047E8
:103D20000146486980B270470183704741837047FC
:103D30000AB1018300E041837047416170474269E5
:103D40004A4042617047F0B5002300244D07ED0E54
:103D500002FA05F3CE1000F1200555F826504E0763
:103D6000F70E0F26BE40B543CF1000F1200646F8EF
:103D70002750CE1000F1200555F8265045EA0304DF
:103D8000CE1000F1200545F82640F0BD00000240AD
:103D90000004024000080240000C024000100240F3
:103DA0000014024000180240001C024000200240A3
:103DB0000024024000280240016821F00101016056
:103DC0000021016041608160C16001612121416188
:103DD000DB49884204D13D21D94A103A91608CE0F8
:103DE000D7491831884205D14FF47461D44A103A4A
:103DF000916082E0D2493031884205D14FF474118C
:103E0000CF4A103A916078E0CD494831884205D1D7
:103E10004FF07461CA4A103A91606EE0C84960314F
:103E2000884204D1C749C64A103AD16065E0C44906
:103E30007831884204D1C449C14A103AD1605CE06B
:103E4000BF499031884204D1C049BD4A103AD1607F
:103E500053E0BB49A831884205D14FF03D51B84AE3
:103E6000103AD16049E0BA49884204D13D21B84AAC
:103E7000083A116041E0B6491831884205D14FF443
:103E80007461B34A083A116037E0B1493031884271
:103E900005D14FF47411AE4A083A11602DE0AC49D7
:103EA0004831884205D14FF07461A94A083A11603F
:103EB00023E0A7496031884204D1A249A44A121FD5
:103EC00011601AE0A2497831884204D19E49A04A83
:103ED000121F116011E09E499031884204D19B4924
:103EE0009B4A121F116008E09949A831884204D109
:103EF0004FF03D51964A121F1160704710B50022D5
:103F00000268944B1A40CC680B6823434C692343E6
:103F10008C692343CC6923430C6A23434C6A2343B3
:103F20008C6A23434C6B23438C6B23431A430260FC
:103F3000426922F00702D1E90B3423431A4342615C
:103F40000B6943604B6883608B68C36010BD0021C0
:103F5000016041608160C160016141618161C16155
:103F6000016241628162C1620163416381637047A2
:103F700021B1026842F00102026003E0026822F00F
:103F800001020260704721B1026842F400420260FF
:103F900003E0026822F400420260704721B1026827
:103FA00042F02002026003E0026822F02002026078
:103FB0007047416070470146486880B2704722B13F
:103FC000036843F40023036003E0036823F4002341
:103FD00003600161704721B1026842F480220260EF
:103FE00003E0026822F48022026070470AB1016196
:103FF00000E0C1607047014600200A6802F4002218
:104000000AB1012000E000207047014600200A6844
:1040100002F001020AB1012000E0002070470146D1
:1040200000204A6902F03800704730B503460A465E
:1040300000200024464DAB4202D24149103901E034
:104040004349103902F000550DB14C6800E00C688E
:10405000414D2C4004EA02050DB1012000E0002092
:1040600030BD02463A4B9A4202D23548103801E040
:104070003748103801F000531BB1374B0B40C36079
:1040800002E0354B0B408360704710B501F08003B0
:104090004BB122B1436943F08003436103E04369BC
:1040A00023F08003436180290BD02AB1036801F01B
:1040B0001E042343036004E0036801F01E04A343CD
:1040C000036010BD70B50246002000240025204E7C
:1040D000B24202D21A4B103B01E01D4B103B1F4E67
:1040E0000E4036B11E2606EAD124166806EA0405FB
:1040F00002E0566906F0800501F000560EB15C68DA
:1041000000E01C68144E344004EA010616B10DB1FB
:10411000012000E0002070BD02460D4B9A4202D201
:104120000748103801E00A48103801F000531BB16D
:10413000094B0B40C36002E0074B0B4083607047A4
:10414000106002403D000020400F002000003D2094
:10415000106402403F801CF07D0F7D0F3C0F3C0F30
:10416000F948006840F00100F74908600020F6496E
:1041700008310860F4480068F4490840F2490860D2
:10418000F348091D0860F348EF4984310860F0489E
:104190001038091D0860EC48006820F48020EA49C6
:1041A00008600020E8490C310860E7498C3108605C
:1041B00070470021E44A921C117011460870704744
:1041C00010B501460022002300204A11012A02D125
:1041D000DD4C236808E0022A03D1DB4C70342368ED
:1041E00002E0D94C7434236801F01F02012494408A
:1041F0001C400CB1012000E0002010BD38B50020AB
:1042000000900024002500BF3120FFF7D9FF0546AC
:104210000098401C00900098B0F5A04F01D0002DF0
:10422000F2D03120FFF7CCFF08B1012400E00024D8
:10423000204638BD01460020C34A106820F0F8002F
:1042400040EAC10010607047C34908607047002110
:10425000BD4A703211701170012802D004280AD1B1
:1042600004E00121B84A7032117005E00521B64A18
:104270007032117000E000BF00BF7047B74908609E
:10428000704770B5049C41EA82150126C6EB5306BF
:1042900045EA0645054345EA0465AB4E361D3560E3
:1042A00070BDAD4908667047820142EA0172A64BB3
:1042B00084331A607047A8498866704710B5830137
:1042C00043EA016343EA02739F4C8834236010BDC4
:1042D000A14908677047A049C8647047024600209A
:1042E000994B0833186820F0EC6042EA0103184348
:1042F000954B08331860704702460020924B0833F4
:10430000186820F0784042EA010318438E4B0833C6
:1043100018607047014600208B4A0832106820F070
:10432000030008431060704787480830006800F0B9
:104330000C00704701460020834A0832106820F0C4
:10434000F000084310607047014600207E4A0832A2
:10435000106820F4E05008431060704701460020C8
:10436000794A0832106820F4604040EAC1001060C9
:104370007047F0B500210022002402250026022308
:10438000714F08373F6807F00C0121B1042905D0AF
:10439000082937D105E0724F076036E0714F07609A
:1043A00033E0694F3F1D3F68C7F38056664F3F1D9E
:1043B0003F6807F03F036EB16A4FB7FBF3F7DFF8D2
:1043C00088C10CF1040CDCF800C0CCF3881C07FB9E
:1043D0000CF40CE0624FB7FBF3F7DFF86CC10CF1A3
:1043E000040CDCF800C0CCF3881C07FB0CF4564F1F
:1043F0003F1D3F68C7F301477F1C7D00B4FBF5F705
:10440000076002E0564F076000BF00BF4E4F0837FD
:104410003F6807F0F0010909534F7A5C0768D740FD
:104420004760494F08373F6807F4E051890A4E4F0B
:104430007A5C4768D7408760434F08373F6807F486
:104440006041490B484F7A5C4768D740C760F0BD70
:10445000002100F44072B2F5407F0AD13A4A083296
:10446000116821F4F811414A02401143364A0832DA
:104470001160354A70321268C0F30B031A43324B95
:1044800070331A60704735494439086070473349C2
:10449000403908607047364908607047014600207F
:1044A000294A8C32106820F01F004A1E1043264A09
:1044B0008C321060704701460020234A8C3210680D
:1044C00020F4F8504A1E40EA02201F4A8C32106045
:1044D0007047014600201C4A8C32106820F44010BE
:1044E00008431060704701460020174A8C3210685C
:1044F00020F4400008431060704701460020124A33
:104500008C32106820F4403008431060704719491D
:104510000860704739B10C4A3032126802430A4BC6
:1045200030331A6006E0084A303212688243064B84
:1045300030331A607047F9B1034A343212680243CB
:10454000014B34331A601CE000380240FFFFF6EAEA
:10455000103000240030002000004742800E474207
:104560000024F40000127A0056000020FFFCFF0F28
:104570005C014742E01147428F4A126882438E4BEA
:104580001A60704739B18C4A121D126802438A4B77
:104590001B1D1A6006E0884A121D12688243864B72
:1045A0001B1D1A60704739B1834A0C3212680243EE
:1045B000814B0C331A6006E07F4A0C32126882434A
:1045C0007D4B0C331A60704739B17B4A1032126848
:1045D0000243794B10331A6006E0774A10321268B2
:1045E0008243754B10331A60704739B1724A243ACE
:1045F00012680243704B243B1A6006E06E4A243A6C
:10460000126882436C4B243B1A60704739B16A4A86
:10461000203A12680243684B203B1A6006E0664A63
:10462000203A12688243644B203B1A60704739B1CC
:10463000614A1C3A126802435F4B1C3B1A6006E059
:104640005D4A1C3A126882435B4B1C3B1A60704700
:1046500039B1594A143A12680243574B143B1A6055
:1046600006E0554A143A12688243534B143B1A60D1
:10467000704739B1504A103A126802434E4B103B12
:104680001A6006E04C4A103A126882434A4B103BCB
:104690001A60704739B1484A1C3212680243464BCF
:1046A0001C331A6006E0444A1C3212688243424BB3
:1046B0001C331A60704739B13F4A203212680243F6
:1046C0003D4B20331A6006E03B4A20321268824399
:1046D000394B20331A60704739B1374A2432126897
:1046E0000243354B24331A6006E0334A2432126801
:1046F0008243314B24331A60704739B12E4A2C3231
:10470000126802432C4B2C331A6006E02A4A2C32E2
:1047100012688243284B2C331A60704739B1264AFD
:10472000303212680243244B30331A6006E0224ACA
:10473000303212688243204B30331A6070470128B0
:1047400008D11D493C31096841F008011A4A3C3240
:10475000116007E018493C31096821F00801164A48
:104760003C321160704739B1134A273A127802433C
:10477000114B273B1A7006E00F4A273A1278824302
:104780000D4B273B1A7070470B484030006840F0D3
:104790008070094940310860704701460020064A90
:1047A000283A12680A400AB1012000E00020704750
:1047B00001492639087070473438024010B5044664
:1047C000FA48844208D101211020FFF752FF00214E
:1047D0001020FFF74EFF57E0F548844209D1012130
:1047E0004804FFF735FF00214FF40030FFF730FF9A
:1047F0004AE0F048844209D101218804FFF728FFEC
:1048000000214FF48020FFF723FF3DE0EA48844277
:1048100009D10121C804FFF71BFF00214FF400203C
:10482000FFF716FF30E0E548844209D10121080571
:10483000FFF70EFF00214FF48010FFF709FF23E080
:10484000DF48844208D101212020FFF712FF002118
:104850002020FFF70EFF17E0DA48844209D101213A
:104860008807FFF7F5FE00214FF08040FFF7F0FECC
:104870000AE0D548844207D101214005FFF7E8FE50
:1048800000216005FFF7E4FE10BD2DE9FF47054656
:104890000E460024A14600BFA046B08900B100BF6B
:1048A0002C8A24F44054F08804432C82AC8941F2D1
:1048B0000C608443B08831890843718908430443FC
:1048C000AC81AC8A24F44074B0890443AC8268465D
:1048D000FFF74FFDB548854202D0B948854202D165
:1048E000DDF80C9001E0DDF80890A88900F40040A4
:1048F00040B109EBC90000EB091031684900B0FB79
:10490000F1F707E009EBC90000EB091031688900F5
:10491000B0FBF1F76420B7FBF0F00401200964213B
:1049200001FB1078A88900F4004040B1322000EB70
:10493000C800B0FBF1F000F00700044308E03220AB
:1049400000EB08106421B0FBF1F000F00F0004430D
:104950002C81BDE8FF874FF4165101600021818052
:10496000C18001810C21418100218181704710B5F6
:1049700002460020108A20F470600B884C88234384
:104980008C882343CC8823431843108210BD002118
:10499000018041808180C180704721B1828942F4C9
:1049A0000052828104E082894DF6FF731A408281B1
:1049B0007047028B02F47F420283028B0A43028318
:1049C000704721B1828942F40042828103E08289EA
:1049D000C2F30E028281704721B1828A42F40062E2
:1049E000828204E0828A4FF2FF731A40828270470B
:1049F000C1F308028280704701468888C0F308002E
:104A00007047028A4FF6F0731A400282028A0A4304
:104A10000282704721B1828942F00202828104E061
:104A200082894FF6FD731A408281704782894FF266
:104A3000FF731A40828182890A4382817047028A09
:104A40004FF6DF731A400282028A0A4302827047DD
:104A500021B1028A42F48042028204E0028A4BF6CB
:104A6000FF731A4002827047818941F00101818100
:104A7000704721B1828A42F00802828204E0828A71
:104A80004FF6F7731A4082827047028BD2B20283CC
:104A9000028B42EA01220283704721B1828A42F0EE
:104AA0002002828204E0828A4FF6DF731A408282FB
:104AB000704721B1828A42F01002828204E0828A29
:104AC0004FF6EF731A4082827047828A4FF6FB736B
:104AD0001A408282828A0A438282704721B1828A86
:104AE00042F00202828204E0828A4FF6FD731A408D
:104AF000828270471AB1838A0B43838202E0838AE1
:104B00008B4383827047F0B50346002400260025BE
:104B1000002040F66A17B94200D100BF1846C1F321
:104B2000421401F01F06012707FA06F5012C01D1F6
:104B30000C3004E0022C01D1103000E014301AB126
:104B400007682F43076002E00768AF430760F0BDC6
:104B500002460020B1F5007F00D100BF13880B4052
:104B60000BB1012000E00020704701F40072B2F5A3
:104B7000007F00D100BFCA430280704770B5024673
:104B8000002400230025002040F66A16B14200D11F
:104B900000BFC1F3421501F01F03012606FA03F31B
:104BA000012D13D19689334017E000000010014019
:104BB0000044004000480040004C004000500040CD
:104BC0000014014000780040007C0040022D02D11A
:104BD000168A334001E0968A33400C12012606FA09
:104BE00004F41688344013B10CB1012000E0002019
:104BF00070BD10B50022002340F66A14A14200D116
:104C000000BF0A1201249440A3B2DC43048010BD0B
:104C100010B50446FE48844208D101210846FFF73A
:104C200028FD00210120FFF724FD9DE0B4F1804F15
:104C300008D101210846FFF70BFD00210120FFF7F5
:104C400007FD91E0F348844208D101210220FFF7DB
:104C5000FFFC00210220FFF7FBFC85E0EE488442C8
:104C600008D101210420FFF7F3FC00210420FFF705
:104C7000EFFC79E0E948844208D101210820FFF7E0
:104C8000E7FC00210820FFF7E3FC6DE0E4488442E4
:104C900008D101211020FFF7DBFC00211020FFF7D5
:104CA000D7FC61E0DF48844208D101212020FFF7D2
:104CB000CFFC00212020FFF7CBFC55E0DA488442EE
:104CC00008D101210220FFF7D4FC00210220FFF7C8
:104CD000D0FC49E0D548844209D101210804FFF7FE
:104CE000C8FC00214FF48030FFF7C3FC3CE0D04803
:104CF000844209D101214804FFF7BBFC00214FF495
:104D00000030FFF7B6FC2FE0CA48844209D10121E8
:104D10008804FFF7AEFC00214FF48020FFF7A9FCC8
:104D200022E0C548844208D101214020FFF790FCD1
:104D300000214020FFF78CFC16E0C048844208D1D7
:104D400001218020FFF784FC00218020FFF780FCF8
:104D50000AE0BB48844207D101218015FFF778FCA7
:104D60000021A015FFF774FC10BD00220288A84B9B
:104D700098420ED0AC4B98420BD0B0F1804F08D087
:104D8000A44B984205D0A44B984202D0A34B984222
:104D900004D14FF68F731A404B881A43A04B9842A8
:104DA00007D0A04B984204D04FF6FF431A400B891E
:104DB0001A4302804B68C3620B880385944B984268
:104DC00002D0994B984201D18B7A038601238382CA
:104DD00070474FF0FF314160002101800181418027
:104DE000817270470185828270470A4600210188DE
:104DF0004FF68F731940114301807047416270472D
:104E0000C16270470146486A70470146088D704785
:104E100021B1028842F00202028004E002884FF6CB
:104E2000FD731A400280704721B1028842F00402EB
:104E3000028004E002884FF6FB731A40028070473C
:104E400021B1028842F08002028004E002884FF61D
:104E50007F731A400280704702884FF6F7731A403A
:104E6000028002880A430280704702884FF6FF439F
:104E70001A40028002880A430280704721B10288EA
:104E800042F00102028004E002884FF6FE731A40ED
:104E90000280704770B5002400220023058C4FF675
:104EA000FE7635400584028C8388048B4FF68F751F
:104EB0002C40B51E2C400D882C43751E2A408D8930
:104EC0002A434D882A43524DA84202D0564DA8424B
:104ED00013D14FF6F7752A40CD892A434FF6FB755B
:104EE0002A408D882A434FF6FF652B404FF6FF5529
:104EF0002B400D8A2B434D8A2B43838004838D687E
:104F00004563028470BD70B5002400220023058C27
:104F10004FF6EF7635400584028C8388048B48F683
:104F2000FF752C404FF6FF452C400D884FF6FF765D
:104F300006EA05252C434FF6DF752A408D8906EADF
:104F400005152A434D8806EA05152A43304DA84227
:104F500002D0354DA8421DD14FF67F752A40CD892C
:104F60004FF6FF7606EA05152A434FF6BF752A402D
:104F70008D8806EA05152A434FF6FF352B404FF280
:104F8000FF752B400D8A06EA85052B434D8A06EAFC
:104F900085052B43838004838D688563028470BDFF
:104FA00070B5002400220023058C4FF6FF663540C3
:104FB0000584028C8388848B4FF68F752C404FF6C6
:104FC000FC752C400D882C434FF6FF552A408D89E7
:104FD0004FF6FF7606EA05252A434D8806EA0525A1
:104FE0002A430B4DA84202D00F4DA84238D14FF2B0
:104FF000FF752A40CD894FF6FF7606EA05252A433C
:105000004FF6FF352A408D8806EA05252A4319E028
:10501000000001400004004000080040000C004077
:105020000010004000140040000401400040014016
:10503000004401400048014000180040001C0040AE
:10504000002000404EF6FF752B404DF6FF752B40BB
:105050000D8A06EA05152B434D8A06EA05152B43F2
:10506000838084838D68C563028470BD70B500221F
:1050700000230024058C4EF6FF7635400584038C12
:105080008488828B48F6FF752A404FF6FF452A40F8
:105090000D884FF6FF7606EA05252A434DF6FF7583
:1050A0002B408D8906EA05352B434D8806EA0535E8
:1050B0002B43FE4DA84202D0FD4DA84208D14BF62D
:1050C000FF752C400D8A4FF6FF7606EA85152C43B6
:1050D000848082838D680564038470BD0021018013
:1050E0004180818081608181C181018241827047DC
:1050F00070B50346002000241846183001258D4065
:10510000ACB21D8CA5431D8409B108290AD100EB5E
:10511000610005684FF68F763540056005681543D8
:1051200005600FE00D1FC5F34E052844056848F6DD
:10513000FF763540056005684FF6FF7606EA0226E1
:105140003543056070BD4163704781637047C1633B
:105150007047016470470A460021018B4FF68F7338
:1051600019401143018370470A460021018B48F61C
:10517000FF7319404FF6FF7303EA022319430183BB
:1051800070470A460021818B4FF68F7319401143F7
:10519000818370470A460021818B48F6FF731940CE
:1051A0004FF6FF7303EA02231943818370470A46CF
:1051B0000021018B4FF6F7731940114301837047AB
:1051C0000A460021018B4FF2FF7319404FF6FF731F
:1051D00003EA02231943018370470A460021818BA9
:1051E0004FF6F77319401143818370470A46002137
:1051F000818B4FF2FF7319404FF6FF7303EA0223CE
:105200001943818370470A460021018B4FF6FB73D7
:1052100019401143018370470A460021018B4FF664
:10522000FF3319404FF6FF7303EA0223194301834A
:1052300070470A460021818B4FF6FB7319401143DA
:10524000818370470A460021818B4FF6FF33194056
:105250004FF6FF7303EA02231943818370470A461E
:105260000021018B4FF67F73194011430183704772
:105270000A460021018BC1F30E014FF6FF7303EACA
:1052800002231943018370470A460021818B4FF6A0
:105290007F7319401143818370470A460021818B37
:1052A000C1F30E014FF6FF7303EA02231943818312
:1052B00070470A460021018C4FF6FD7319401143D7
:1052C000018470470A460021018C4FF6F77319409C
:1052D0001143018470470A460021018C4FF6DF73A9
:1052E00019404FF6FF7303EA021319430184704714
:1052F0000A460021018C4FF67F7319404FF6FF7369
:1053000003EA02131943018470470A460021018C05
:105310004FF6FF5319404FF6FF7303EA0223194378
:10532000018470470A460021018C4FF2FF73194037
:105330004FF6FF7303EA02231943018470470A46BC
:105340000021018C4DF6FF7319404FF6FF7303EAFD
:10535000023319430184704730B5002301248C4087
:10536000A3B2048C9C430484048C02FA01F5ADB210
:105370002C43048430BD30B5002304248C40A3B2F8
:10538000048C9C430484048C02FA01F5ADB22C43D6
:10539000048430BD828B4FF2FF331A408283828BAC
:1053A0004FF6FF7303EA01231A4382837047F0B577
:1053B0000C461546002100220026078C4EF6FF7C85
:1053C00007EA0C070784818B028C4FF6FF7707EA08
:1053D000043640F6FF4739404FF6FF7707EA0527C6
:1053E00039434FF6FF7707EA0337394345F6FF772E
:1053F0003A4046F480573A4381830284F0BD828B61
:105400004FF6F3731A408283828B0A43828370477C
:10541000F0B50C461546002100220026078C4FF6F9
:10542000FF6C07EA0C070784818B028C4FF6FF772D
:1054300007EA04264FF60C7739404FF6FF7707EA64
:1054400003172F4339434FF2FF573A4046F4807712
:105450003A4381830284F0BD028B4FF2FF331A403E
:105460000283028B4FF6FF7303EA01231A43028380
:105470007047F0B50C461546002100220026078C27
:105480004FF6EF7C07EA0C070784018B028C4FF67E
:10549000FF7707EA041640F6FF4739404FF6FF77DB
:1054A00007EA033739434FF6FF7703E00000014076
:1054B0000004014007EA052739434FF65F773A4079
:1054C00046F010073A4301830284F0BD028B4FF689
:1054D000F3731A400283028B0A4302837047F0B5CC
:1054E0000C46154600210022068C4FF6FE773E4002
:1054F0000684018B028C4FF60C7631407E1C06EA46
:1055000003162E4331434FF6F576324044F0010640
:10551000324301830284F0BD70B505460C462088F5
:1055200050B92389A28861882846FFF7D8FFE1880F
:105530002846FFF7CBFF25E0208804280AD12389DD
:10554000A28861882846FFF794FFE1882846FFF784
:1055500083FF17E0208808280AD12389A288618860
:105560002846FFF755FFE1882846FFF748FF09E086
:105570002389A28861882846FFF719FFE188284619
:10558000FFF708FF70BD002101804180012181806B
:105590000021C180018170472DE9F04105460C468C
:1055A00000260127608808B9022600E00026A088AE
:1055B000012801D1022700E001272088A0B9238912
:1055C000A28861882846FFF78AFFE1882846FFF70E
:1055D0007DFF23893A4631462846FFF74AFFE18896
:1055E0002846FFF739FF13E02389A28861882846FF
:1055F000FFF73FFFE1882846FFF72EFF23893A4651
:1056000031462846FFF76BFFE1882846FFF75EFF2B
:10561000BDE8F0810146486B70470146886B7047D2
:105620000146C86B70470146086C70470A884B8872
:105630001A438B881A43CB881A430B891A434B8928
:105640001A438B891A43A0F8442070470021018037
:1056500041808180C180018141818181704731B168
:10566000B0F8442042F40042A0F8442005E0B0F82D
:105670004420C2F30E02A0F84420704721B1828872
:1056800042F00402828004E082884FF6FB731A40E5
:105690008280704721B1828842F00102828004E05A
:1056A00082884FF6FE731A40828070471AB1838950
:1056B0000B43838102E083898B438381704781821E
:1056C000704702460020138A0B400BB1012000E016
:1056D00000207047CA430282704730B5024600205E
:1056E00000230024158A05EA0103958905EA0104CF
:1056F00013B10CB1012000E0002030BDCA4302828A
:10570000704741EA0203A0F8483070471AB1838914
:105710000B43838102E083898B438381704721B1EE
:10572000828842F00802828004E082884FF6F77394
:105730001A408280704701894FF6F872114001814A
:1057400070470A46002101894FF68F7319401143B3
:105750000181704730B504460D4629462046FFF7C3
:10576000F0FF208940F00700208130BD2DE9F04195
:1057700004460D4616461F46602D06D13B460122C3
:1057800031462046FFF775FE05E03B4601223146D3
:105790002046FFF7A4FE29462046FFF7D2FF2089C6
:1057A00040F007002081BDE8F08130B50C460021B3
:1057B0000189C9B24FF6FF7505EA03251543254354
:1057C0002943018130BD2DE9F04105460E461746BB
:1057D0009846002443463A4631462846FFF7E5FFFF
:1057E0002C894FF6F870044044F007044FF68F7090
:1057F000044044F070042C81BDE8F081F0B504460B
:105800000D4616461F463B46324629462046FFF7C0
:10581000CCFF208940F480402081F0BD82884FF683
:105820008F731A40828082880A438280704702897F
:105830004FF6F8731A40028102890A4302817047C9
:1058400002894FF67F731A40028102890A4302815E
:105850007047F0B50C4615461E4600210022002375
:105860000189028B038C4FF6F877394021434FF6BC
:10587000FC473A4040F201173A434FF6DD773B4090
:105880004FF6FF7707EA06172F433B430181028358
:105890000384F0BD21B1828842F08002828004E05E
:1058A00082884FF67F731A4082807047A0F85010AC
:1058B0007047000010B50121C802FEF7DAFE002192
:1058C0004FF40060FEF7D5FE10BD00216C4A116850
:1058D00047F6FF629143027D83681A4343681A4387
:1058E000C3681A4303681A4303691A431143644A9D
:1058F0001160704700210175016041608160C160E5
:10590000016170475F49086070475D49091F086081
:1059100070475B48001F006800F0030070470021DB
:10592000574B1B1D02681A601A1D11686FF30A019C
:10593000D0E901231A43C3681A4303691A43114388
:105940004F4A083211607047002101604160816058
:10595000C160016170474A480C300068C0B27047AE
:1059600008B50146002000904548103008440090DA
:105970000098006808BD0021414B203302681A607E
:105980001B1D42681A601A1D116821F0F701D0E949
:1059900002231A4303691A4343691A431143384ADD
:1059A0002832116070474FF0FF31016000214160E3
:1059B0008160C16001614161704731482C300068ED
:1059C00070472F487C30006870472D497C31086053
:1059D00070472B484430006870472B490860704777
:1059E0002949091D08607047274908310860704738
:1059F00025490C31086070472449086070472349E5
:105A0000091D0860704701218143204A0832116056
:105A100070471E490C31086070471B4914390860F3
:105A2000704739B1164A383212680243144B383382
:105A30001A6006E0124A383212688243104B38333B
:105A40001A607047014600200D4A303212680A4041
:105A50000AB1012000E00020704709493431086094
:105A6000704701460020064A303212680A400AB1E7
:105A7000012000E000207047014934310860704780
:105A8000042C0140A0802542A0852542AC812542FE
:105A900008B50022009200200021CA22F94B1A60AA
:105AA00053221A60F74A183A126822F0A002F54B06
:105AB000183B1A6000BFF34A183A126802F020013E
:105AC000009A521C0092009AB2F5003F01D00029C2
:105AD000F1D0EC4A183A126802F020020AB1012013
