:020000040800F2
:1000000088FE0120A1300008DD030008DF0300089E
:10001000E7030008E9030008EB0300080000000004
:10002000000000000000000000000000ED030008D8
:10003000EF03000800000000F1030008F3030008CC
:10004000BB300008BB300008BB300008BB300008E4
:10005000BB300008BB300008BB300008BB300008D4
:10006000BB300008BB300008BB300008BB300008C4
:10007000BB300008BB300008BB300008BB300008B4
:10008000BB300008BB300008BB300008BB300008A4
:10009000BB300008BB300008BB300008BB30000894
:1000A000BB300008BB300008BB300008BB30000884
:1000B000BB300008492B0008BB300008BB300008EB
:1000C000BB300008BB300008BB300008BB30000864
:1000D000BB30000839300008BB300008BB300008D6
:1000E000BB300008BB300008BB300008BB30000844
:1000F000BB300008BB300008BB300008BB30000834
:10010000BB300008111C0008BB300008BB300008E1
:10011000BB300008BB300008BB300008BB30000813
:10012000BB300008BB300008BB300008131C0008BF
:10013000BB300008BB300008BB300008BB300008F3
:10014000BB300008BB300008BB300008BB300008E3
:10015000BB300008BB300008BB300008BB300008D3
:10016000BB300008BB300008BB300008BB300008C3
:10017000BB300008BB30000831210008BB3000084C
:10018000BB300008BB30000800F002F800F047F870
:100190000AA090E8000C82448344AAF10107DA45E2
:1001A00001D100F03CF8AFF2090EBAE80F0013F0ED
:1001B000010F18BFFB1A43F001031847083803006A
:1001C00028380300103A24BF78C878C1FAD85207FB
:1001D00024BF30C830C144BF04680C6070470000C1
:1001E0000023002400250026103A28BF78C1FBD840
:1001F000520728BF30C148BF0B607047642907F021
:100200007B87752907F07887732908F0E48100203F
:1002100070471FB508F065FA1FBD10B510BD08F096
:1002200027FA1146FFF7F5FF00F008F808F045FA45
:1002300003B4FFF7F2FF03BC02F0A0FE10B54FF4C9
:10024000A06002F04DFFA82002F03CFE01F06FFD1F
:100250004FF4E13002F09AFE01F09CFE01F0BAFE8C
:10026000012222A1284606F046FC0446532142F210
:100270000F7002F03DFC0D2C09D0002C22D021463D
:100280001BA007F0C9FE23A007F0C6FEFEE72AA0C8
:1002900007F0C2FE0022114614A007F0E0F918B1E1
:1002A0002BA007F0B9FEFEE72FA007F0B5FE012254
:1002B0000EA1002006F01FFC01220CA1284606F02A
:1002C0001AFC04E030A000E039A007F0A5FE02F01F
:1002D00069F80028F8D13BA007F09EFE3E490020B7
:1002E000C1F8A00202F0C3FC002010BD303A0000AB
:1002F000A3A1A3A15344BFA8B9D2D4D8CEC4BCFEF5
:10030000CFB5CDB3CAA7B0DCA1A3282564290D0AB7
:1003100000000000A3A1A3A1BFC9C4DCD4ADD2F2E8
:10032000A3BA5344BFA8B3F5CABCBBAFB2BBB3C9F1
:10033000B9A6A1A30D0A0000A1B7BCB4BDABBDF81E
:10034000D0D0B8F1CABDBBAF2E2E2E0D0A000000D2
:10035000A1B6A1B6B8F1CABDBBAFCAA7B0DCA1A314
:10036000A1B7A1B70D0A0000A1B75344BFA8D2D1CD
:10037000B3C9B9A6B8F1CABDBBAFCEC4BCFECFB538
:10038000CDB3A1A30D0A0000A1B7CEC4BCFECFB56A
:10039000CDB3B9D2D4D8B3C9B9A6A3ACBFC9D2D44E
:1003A000BDF8D0D0B6C1D0B4B2E2CAD40D0A0000B4
:1003B0004F5632363430B3F5CABCBBAFCAA7B0DC37
:1003C000000000004F5632363430B3F5CABCBBAF24
:1003D000B3C9B9A60A00000000804242704705A0D8
:1003E00007F01AFEFBE7FEE7FEE7FEE770477047FF
:1003F0007047704768617264206661756C740A00AA
:100400000CB500205449019000900A6842F48032F3
:100410000A604FF4A0430A6802F400320092019A85
:10042000521C0192009A12B9019A9A42F3D10A68B9
:10043000920334D50120009047484030026842F0D2
:10044000805202604548026842F4404202604248DD
:10045000083002680260026842F4004202600268EA
:1004600042F4A0520260031F3D4A1A600A6842F03B
:1004700080720A600A689201FCD53A4A40F205711E
:100480001160016821F003010160016841F002017F
:1004900001600168C1F381010229FAD10CBD00900D
:1004A0000CBD314810B5016841F4700101602A4863
:1004B000016841F001010160274A00210832116002
:1004C00002682A4B1A400260031D294A1A6002681A
:1004D00022F48022026020480C300160FFF790FF78
:1004E00021494FF000608039086010BD70B51A4C8A
:1004F000083420681F4A10F00C011F4804D0551022
:10050000042903D0082903D002601BE0056019E02C
:100510001149091D0B68C3F380560B6803F03F03B4
:1005200016B1B5FBF3F201E0B2FBF3F20B68096818
:10053000C3F388135A43C1F30141491C4900B2FB7C
:10054000F1F1016021680C4AC1F30311121D515CE5
:100550000268CA40026070BD00380240007000406E
:1005600008544007003C024088ED00E0FFFFF6FE23
:10057000103000240024F400040000207CB500208A
:1005800004F04EFA002004F04FFA04F021FA0021A2
:100590004FF4006003F0D3FAFB4C00220821204600
:1005A00002F085FF00220921204602F080FF002290
:1005B0000A21204602F07BFF00220B21204602F098
:1005C00076FF00220C21204602F071FFEF4D002241
:1005D0000221284602F06BFF00214FF470608DF875
:1005E000041000908DF807106946204602F0D6FEF0
:1005F000042000906946284602F0D0FEA014009026
:100600006946204602F0CAFE7CBD7CB501210C2063
:1006100003F06DFADC4D0C220821284602F047FF5A
:100620000C220921284602F042FF0C220A2128460A
:1006300002F03DFF0C220B21284602F038FF0C226D
:100640001146284602F033FFD04E0C2202213046DC
:1006500002F02DFF02218DF805104FF470608DF827
:100660000410009000248DF8064001208DF807004A
:100670006946284602F092FE042000906946304602
:1006800002F08CFEA81400908DF8074069462846B9
:1006900002F084FE0121C80203F051FA012188050D
:1006A00003F025FA7CBD30B5B94D04468FB04FF04C
:1006B000FA51284603F047F80021284602F0DFFFF0
:1006C000284602F01BFF4FF000600090B148CDE9D2
:1006D0000104402003900120049000202915CDE959
:1006E0000501890007918900CDE908104FF44030D9
:1006F0000A9004200B9003200C9048020D9080106B
:100700000E906946284602F081FF012210212846FA
:1007100003F02AF82021284602F0C5FF01212846CF
:1007200002F0ADFF0FB030BD30B5994D04468FB02B
:100730004FF0FA51284603F006F80021284602F04F
:100740009EFF284602F0DAFE4FF0006000909148CC
:10075000CDE9010400200121CDE903018902CDE9A1
:100760000501890007918900CDE908104FF4403058
:100770000A9004200B9003200C9048020D908010EA
:100780000E906946284602F041FF012210212846BA
:1007900002F0EAFF2021284602F085FF01212846C9
:1007A00002F06DFFBEE7E9E670B57A490024054620
:1007B0004C39086810F0450FFBD0410702D50324DF
:1007C000042003E0C00704D00124204604F0C4F94B
:1007D00059E004F04DF9A8422BD140F2FF5004F04B
:1007E000BBF9002004F049F96B4908424BD00028BE
:1007F00001DA1C2070BD410001D5092070BD8100C7
:1008000001D50A2070BDC10001D50B2070BD0101CA
:1008100001D50C2070BD410101D50D2070BDC10175
:1008200001D50E2070BD010201D50F2070BD41021F
:1008300001D5102070BD810201D5112070BDC1020B
:1008400001D5122070BD010301D5132070BD4103F5
:1008500001D5142070BD810301D5152070BDC103E1
:1008600001D5162070BD010401D5172070BD4104CB
:1008700001D5182070BD810401D5192070BD000775
:1008800001D51A2070BD204670BD2DE9FC5F002502
:10089000424C00954FF4806801954027C4F81080C1
:1008A000C4E902750E464FF0080B1021C4E900B1EF
:1008B000A946204604F0C2F81020FFF775FF002873
:1008C0004DD13748BA464F46008900042060372092
:1008D000C4E9010AC4E90398204604F0AFF83720C0
:1008E000FFF762FF00283AD1411E04F11400C0E96D
:1008F000001B302181600221C0E903170121416101
:1009000004F0C2F83320C4F808A0C4E90070C4E9B8
:100910000378204604F092F83320FFF745FF0400E7
:100920001DD11C4F4FF4001AE9464C3F40F22A6893
:10093000386810EA080F0AD1504604F004F900287C
:10094000F6D004F0C5F849F825006D1CF0E7082042
:1009500004F0F9F828B1082004F0FEF80420BDE8FE
:10096000FC9F022004F0EFF820B1022004F0F4F81C
:100970000220F4E7202004F0E6F898B1202004F0EB
:10098000EBF80620EBE7000000080240000C0240F4
:1009900058640240802C014008E0FFFD2001002047
:1009A000180000204FF40075284604F0CCF820B160
:1009B000284604F0D1F80720D1E740F2FF5004F0B8
:1009C000CBF8009800BA7060019800BA30602046F9
:1009D000C5E72DE9FC47002580460095284601958E
:1009E00004F04BF8800102D50E20BDE8FC87FE4FD5
:1009F0006946388980B2FFF748FF0028F5D13720D3
:100A0000FA4C402601994FF0060A4FF48069B8F17C
:100A1000010F1ED0C90334D53989C4F810900904D8
:100A2000C4E90010C4E90265204604F007F8372045
:100A3000FFF7BAFE0028D8D1C4E9005AC4F81090D4
:100A4000C4E90265E94803F0F9FF0620FFF7ACFEB0
:100A5000CBE7490315D53989C4F810900904C4E9D6
:100A60000010C4E90265E14803F0E8FF3720FFF712
:100A70009BFE0028B9D10220C4F81090C4E9000AF6
:100A8000DEE72520B1E72DE9F0410146D6480026F2
:100A90004068032814D018B1012801D0022827D1BA
:100AA000B1F5805F0CD0D14C4FF400670025183CA5
:100AB000B9420ED10120FFF78CFF060003D017E0EA
:100AC0002720BDE8F081257525606560C4E90257DF
:100AD00009E00020FFF77DFF060009D1257525609C
:100AE0006560A560E560C1482561183803F07CFFAA
:100AF0003046E6E7BD4910B5086007204860402051
:100B000088600020C8604FF480600861084603F0E8
:100B100095FFBDE81040072046E62DE9F043B249B5
:100B2000DFF8C892D1F804C080F856C00989A9F14D
:100B3000A009A0F85410D9F800100A0E9409047006
:100B4000C2F38304447002F0030282700A0CC27084
:100B50000A0A02714171D9F80470390E0901C18085
:100B6000C288C7F3074142EA1112C28001F00F01A7
:100B70000172C7F30722D1094172C2F38011817259
:100B8000C2F34011C172C2F300110173002141731D
:100B90004B469D6801232E0EC5F30744C5F3072875
:100BA000BCF1000F06D0BCF1010F03D0BCF1020F65
:100BB0003BD052E09207120D0261FAB2076947EA90
:100BC00082020261026942EA96120261C6F3C2021F
:100BD000027506F00702427562098275C4F382024B
:100BE000C275A207520F0276047E424644EAD2142E
:100BF00004760469077EBF1C03FA07F6641CA4FB95
:100C000006784FEAE67C01FB068604FB0C6690F84A
:100C100008C003FA0CF4A7FB04C8046506FB0484AF
:100C200007FB0144C0E912C417E0BA06920A026148
:100C3000026942EA062202610269224302610469F2
:100C40004246641C41F10006F60446EA5436E404C8
:100C5000C0E912464FF400740465C2F38014447670
:100C60009206520E00F81A2FEAB2057845EAD2151C
:100C700000F8015B02F07F0200F8012BD9F80C406C
:100C8000220ED50900F8015BC2F3411500F8015BA3
:100C9000C2F3820500F8015B9207120F027005781B
:100CA000C4F3074245EA921500F8015BC2F3401510
:100CB0000570417002F001028270C4F30722D50969
:100CC000C570C2F380150571C2F340154571C2F3BA
:100CD00000158571C2F38105C57102F0030202722D
:100CE000C4F3460242728372404C903C2268150E57
:100CF0000573150C2D02C581C689C2F307252E4345
:100D0000C6811206026162680669150E46EA05454B
:100D100005610669C2F3074546EA052505610669CE
:100D2000C2F307252E4306610275A268150E4575AC
:100D3000150C2D0685618669C2F3072546EA05452F
:100D400085618569D2B245EA02228261E2688569DD
:100D500045EA12658561057FC2F3074445EA14152B
:100D600005772407240DC483C58BC2F307242543CC
:100D7000C583C2F3460280F8202080F8213008465F
:100D8000BDE8F08310B51A480024016811F0450F42
:100D9000FBD0480702D50324042003E0C80705D090
:100DA0000124204603F0D8FE204610BD40F2FF503B
:100DB000F8E72DE9F84F01200025ADF8000003F019
:100DC00037FEE0B3DFF82090D9F8040004286FD094
:100DD000064C00264FF0C00A0220C4F808A0C4E95F
:100DE00000604FF4806805E018000020200100201A
:100DF000342C0140C4E90368204603F01FFEFFF7CE
:100E0000C1FF05001DD103F038FEA4F19007386042
:100E1000042003F032FE7860082003F02EFEB86054
:100E20000C2003F02AFEF860D9F804004F4650B1B8
:100E3000012808D0062806D0022804D013E0FFE7D6
:100E40002520BDE8F88F0320E4E80260402084E814
:100E50004101FE48083C03F0F1FD6946032000F023
:100E6000D9FE0500EDD17868042821D0BDF8000036
:100E7000B860000420600920C4E9010AC4E90368DD
:100E8000F24803F0DBFDFFF77DFF0500D9D103F049
:100E9000F4FDEE4CA03C2060042003F0EEFD606009
:100EA000082003F0EAFDA0600C2003F0E6FDE060FE
:100EB0002846C6E72DE9FC5F00258DF80050E34881
:100EC00076211838A9460175056045608560C560C2
:100ED000A846056103F088FD032003F0A5FD01206D
:100EE00003F09EFDD94C4FF4806B20462560656071
:100EF000A560C4E9035B03F0A1FD4FF4803A00272D
:100F0000564601E0761E10D0802003F01CFE00281B
:100F1000F8D056B140F2FF5003F01EFE8DF800707D
:100F20009DF80000002851D101E00327F6E74FF4B7
:100F3000D570206008204027C4E90107C4E9035B9D
:100F40005E46C24803F07AFDC14B002051461A6844
:100F50004FF0370B02E0BE4A1268491E12F0450FEF
:100F600006D009B1510706D54FF0030A042007E067
:100F70000029F0D1F8E7510605D54FF0000A4020CE
:100F800003F0EAFD50468DF800009DF80000F0B136
:100F9000A760C4E9005BC4E90356AC4803F04EFD0A
:100FA0003720FFF701FC8DF80000A760C4E9005B63
:100FB000C4E90356DA46A54803F040FD3720FFF7A1
:100FC000F3FB8DF800009DF8000078B352E0A148D3
:100FD00001214FF080484160E7E7A760C4E9005A6B
:100FE000C4E90356994803F029FD3720FFF7DCFBDD
:100FF0008DF800009DF80000A8BB974948EA010061
:1010000020602920C4E90107C4E903568F4803F092
:1010100015FD00208E490190086810F0450FFBD0A7
:10102000400704D503200190042002E011E040F2C3
:10103000FF5003F091FD01988DF800009DF800002D
:1010400088B9002003F019FDC10F09F1010903D08F
:1010500004E04FF6FF7BC0E7D945BED3D94503D3A3
:101060001B208DF8000005E010F0804F02D0794879
:10107000022141609DF8000071E47CB500248DF8E8
:1010800000404FF4C06002F02BF831208DF80400CE
:1010900001258DF805508DF806408DF8075001A800
:1010A00002F023F83B208DF804008DF8055001A8CC
:1010B00002F01BF8FFF7A9FA03F08AFCFFF7FAFE2B
:1010C0008DF800009DF8000060BBFFF772FE8DF800
:1010D00000009DF8000028BB5C48183804750460C7
:1010E00044608460C460046103F07EFC574870383B
:1010F000FFF713FD8DF800009DF8000048B9534834
:1011000000217038B0F854000004FFF7F3FC8DF8AC
:1011100000009DF8000028B94FF40060FFF7B3FC11
:101120008DF800009DF800007CBD70B504001AD059
:10113000484846490089000408600D204860402066
:1011400088600020C8604FF480600861084603F0A2
:1011500075FC0D20FFF728FB050003D103F08DFC83
:101160002060284670BD262070BD08B501208DF88E
:1011700000009DF8000008BD1CB500200090012073
:101180008DF804009DF80400012803D16846FFF79C
:10119000CCFF08B1FF201CBD0098C0F343201CBD4C
:1011A00010B5FFF7E9FF042803D0FF2803D0012082
:1011B00010BD002010BD022010BD10B50024204637
:1011C00003F032FC204610BD2DE9F0470546002013
:1011D00003F053FC800102D50E20BDE8F0871B4CC4
:1011E00040261020E4E8026000274FF4806884E87D
:1011F000C0011648083C03F021FC1020FFF7D4FA88
:101200000028EAD11348211DB94600890004206056
:101210003720C4F8108081E841020C4803F00EFC2E
:101220003720FFF7C1FA0028D7D1471E07486021B1
:101230001430B2460760C0E901610221C0E9031918
:1012400001214E46416103F01FFC07E02001002010
:10125000342C014018000020000010800D20C4F83C
:1012600008A0C4E90060C4E90368FE4803F0E6FB97
:101270000D20FFF799FA0600AFD1DFF8EC834FF4A9
:10128000004A40F22A6900BFD8F8000010EA090FAE
:101290000FD1504603F057FC0028F5D05FF0000452
:1012A00003F016FC45F82400641C082CF8D3203504
:1012B000EAE7082003F047FC20B1082003F04CFCCB
:1012C00004208AE7022003F03EFC20B1022003F054
:1012D00043FC022081E7202003F035FC20B12020D0
:1012E00003F03AFC062078E74FF40074204603F040
:1012F0002AFC20B1204603F02FFC07206DE74FF4B5
:10130000001403E003F0E4FB01C57F1E204603F058
:101310001AFC08B1002FF5D140F2FF5003F01CFC7D
:1013200030465AE710B50446CE488038FFF74CFFE8
:10133000010036D1CB4880380278920922700278B9
:10134000C2F340126270827812026280C2786388AF
:10135000134363800279120662604279636843EA4C
:10136000024262608279636843EA02226260C27963
:10137000636813436360027A2272427A6272827AED
:101380001209A272C27A1202A281027BA3891343BC
:10139000A381427B9208A273407B00F00300E073BC
:1013A000084610BD2DE9F047B04C0025089F1646B1
:1013B0009846814625702561E560AB480838056090
:1013C000012140F22A3003F0B4FB012003F0ADFB11
:1013D00039464846FFF7A8F96068022803D107029A
:1013E000760A46EAC8569F4C4FF040091020C4F8D0
:1013F0000890C4E900704FF48068C4E9035820469F
:1014000003F01CFB1020FFF7CFF900281CD1411E70
:1014100004F11400C0E90017902181600221C0E9A5
:1014200003150121416103F02FFB1120C4F808903E
:10143000C4E90060C4E90358204603F0FFFABDE8A0
:10144000F0471120FFF7B0B9C7E62DE9F05F874CF0
:10145000DDE90A764FF0000815469946824684F881
:101460000080C4F810804FF0010BC4F80CB07E4926
:101470000839C1F80080594640F22A3003F059FB80
:1014800006FB07F15046FFF74FF9012003F04DFB33
:101490006068022803D107026D0A45EAC955714CFC
:1014A0004FF0400A1020C4F808A0C4E900704FF4BF
:1014B00080692046C4E9038903F0C0FA1020FFF7D1
:1014C00073F900281ED1411E04F114007E43E0E8A8
:1014D0000216902102C00221464680E8420804F12B
:1014E000140003F0D1FA1220C4F808A0C4E9005097
:1014F000C4E90369204603F0A1FABDE8F05F1220B9
:10150000FFF752B9BDE8F09F564810B500210C22F4
:10151000C0E900124022C0E902211101016103F07B
:101520008DFABDE810400C20FFF73EB92DE9F041DF
:101530000026751E28464D4C00E0401E616929B901
:10154000216919B9217809B90028F6D10027676106
:10155000454800E06D1E0168890401D5002DF9D1D0
:10156000E068012803D1FFF7CFFF0646E760354367
:1015700000D1042640F2FF5003F0EEFA207810B1BB
:101580002078BDE8F0813046FBE72DE9F047374D84
:101590000024089F1646984681462C702C61EC600A
:1015A000314808380460012140F22A3003F0C1FAC2
:1015B00039464846FFF777F8012003F0B6FA686825
:1015C000022803D10702760A46EAC856254D4FF095
:1015D00040091020C5F80890C5E900704FF48068F4
:1015E000C5E90348284603F029FA1020FFF7DCF884
:1015F00000281DD11820C5F80890C5E90060C5E98C
:101600000348284603F01AFA1820FFF7CDF80028FF
:101610000ED105F11401401EC1E900079020C1E977
:1016200002040120C1E90440084603F02DFA2046D7
:10163000D3E52DE9F05F0D4CDDE90A764FF00008A7
:1016400015469946824684F80080C4F8108001212E
:10165000E16005490839C1F80080012140F21A30E3
:1016600006E0000020010020342C0140180000207A
:1016700003F05FFA06FB07F15046FFF714F801206C
:1016800003F053FA6068022803D107026D0A45EAA5
:10169000C955FA4C10204FF0400980C4C2464FF49F
:1016A000806B84E8010E201F241F03F0C7F910206F
:1016B000FFF77AF8002844D1F148C846211D008977
:1016C000D946000420603720C4F810B081E8010535
:1016D000204603F0B3F93720FFF766F8002830D131
:1016E000C4F808801720C4E90060C4E903A9C34610
:1016F000D046204603F0A2F91720FFF755F800283E
:101700001FD11920C4F808B0C4E900504546C4E907
:101710000389204603F092F91920FFF745F80028C5
:101720000FD104F11401401E7E43C1E90006902050
:10173000C1E902050120C1E90450084603F0A4F9FB
:101740002846DFE62DE9F0410026751E2846CC4CE0
:1017500000E0401E616929B9216919B9217809B9E8
:101760000028F6D100276761C64800E06D1E0168B9
:10177000C90401D5002DF9D1E068012803D1FFF794
:10178000C3FE0646E760354300D1042640F2FF5011
:1017900003F0E2F9207808B12078F2E63046F0E66E
:1017A000B848006810F4405000D0012070477CB564
:1017B00004460025B248009501950089AF49000410
:1017C00008600D2048604020C1E902050001086161
:1017D000084603F033F9AB480168019111F0450F59
:1017E000FAD00198400702D50324042004E00198B0
:1017F000C00705D00124204603F0AEF920467CBD89
:1018000003F036F901900D2838D140F2FF5003F073
:10181000A3F9002003F031F90090C0F343202070B9
:101820009949009808425DD00098002801DA1C20F0
:101830007CBD400001D509207CBD0098800001D509
:101840000A207CBD0098C00001D50B207CBD00980B
:10185000000101D50C207CBD0098400101D50D2070
:101860007CBD0098C00101D50E207CBD009800020F
:1018700001D50F207CBD0098400201D510207CBD11
:101880000098800201D511207CBD0098C00201D5CE
:1018900012207CBD0098000301D513207CBD009868
:1018A000400301D514207CBD0098800301D515208C
:1018B0007CBD0098C00301D516207CBD00980004B3
:1018C00001D517207CBD0098400401D518207CBDAF
:1018D0000098800401D519207CBD0098000701D52F
:1018E0001A207CBD28467CBD2DE9FF5F804682B072
:1018F00062480027A03801978DF8007040681646AE
:10190000000D8B463D46800602D4252006B0F9E541
:101910005C48303800685D49C0B2801CB1FBF0F013
:101920000190002003F0A9F8800101D50E20EDE719
:101930005348524C4FF0400A40684FF480690228E7
:1019400005D060B101280AD0022808D026E0059809
:101950004FEA5828760A48EACB5846EAC056202073
:10196000C4E90080C4F81090C4E902A5D0464348F9
:1019700003F064F82020FEF717FF0028C6D12120CD
:10198000C4F81090C4E90060C4E902853B4803F044
:1019900055F82120FEF708FF0028B7D12046262160
:1019A000C0E90051C4E902A53448C4F8109003F01E
:1019B00045F82620FEF7F8FE0028A7D100E07F1C9E
:1019C00001988742FBD36846FFF7F1FE4FF0FF34E2
:1019D00004E06846FFF7EBFE641E97D0002895D11F
:1019E0009DF800100729F4D00629F2D08EE770B5D3
:1019F0004FF48075284603F0B3F8214C38B100202D
:101A00002070284603F0B5F8012020612EE0022066
:101A100003F0A6F820B1022003F0ABF8022024E086
:101A2000082003F09DF820B1082003F0A2F804205C
:101A30001BE0202003F094F820B1202003F099F857
:101A4000062012E0102003F08BF820B1102003F0E4
:101A500090F8052009E04FF40075284603F080F85F
:101A600020B1284603F085F80720207000214CF2B1
:101A70003A3003F05EF8207870BD000020010020AD
:101A800018000020342C014008E0FFFDC0D4010004
:101A90007B48006810F0C05F08D07A490120486197
:101AA00077484FF0C251583001F04DBE70470021C9
:101AB00002E04008491CC9B20128FAD10846704723
:101AC0002DE9F04393B000250095402102A801952F
:101AD00006F08CFC6B4802AE05700561C5606A4972
:101AE0000D600089694680B2FEF7CFFE002856D10E
:101AF000019911F0407F52D0644C4FF04008102102
:101B0000E4E8028140464FF4806984E821025F489E
:101B1000083C02F093FF1020FEF746FE00283ED15D
:101B2000471E5A48602114300760C0E90181022134
:101B3000C0E903150121416102F0A6FF544820606D
:101B40000620C4E90108C4E90359504802F076FFB1
:101B50000620FEF729FE002821D14B4D4FF4004905
:101B6000083540F22A68286810EA080F0FD1484665
:101B700002F0E9FF0028F6D05FF0000402F0A8FFB1
:101B800046F82400641C082CF8D32036EBE7082024
:101B900002F0D9FF30B1082002F0DEFF042013B0BC
:101BA000BDE8F083022002F0CEFF20B1022002F057
:101BB000D3FF0220F3E7202002F0C5FF20B1202050
:101BC00002F0CAFF0620EAE74FF40074204602F054
:101BD000BAFF20B1204602F0BFFF0720DFE74FF435
:101BE000001403E002F074FF01C67F1E204602F0DD
:101BF000AAFF08B1002FF5D140F2FF5002F0ACFF70
:101C00009DF81500800701D50020C8E72720C6E70A
:101C1000EDE63DE770B50C461B4900250646083148
:101C2000086810F0450FFBD0410702D503240420BB
:101C300003E0C00705D00124204602F08DFF2046B6
:101C40001AE702F015FFB04212D140F2FF5002F045
:101C500083FF002002F011FF10F4604F03D08104D5
:101C600004D5132008E7000C208007E0410401D5CB
:101C7000102001E7000401D50F20FDE62846FBE611
:101C800000640240180000202C2C0140200100209C
:101C900001FFFF807CB500208DF8030001248DF842
:101CA00000408DF801408DF80240694603F06BF862
:101CB00043F2F2252946002003F0C2FB8DF80440D0
:101CC0008DF806408DF805408DF8074001A90020E9
:101CD00003F0D4F82946002003F0B2FB7CBD0EB51A
:101CE0000121080701F021FF012003F07DFC012004
:101CF00001F000FE612001F0B9FD0028FAD04FF498
:101D0000007001F0A2FE012001F0B4FE02F03CFFE1
:101D10007F200190FF20029000200090684602F092
:101D2000CEFF002802D158A006F076F90EBD10B5FE
:101D3000FFF7D5FF002003F08BFBA0F54851F239E7
:101D400002D0BDE81040A5E77B2001F08FFD10B95F
:101D50007A2001F08BFD0121080701F0E6FE012049
:101D600003F042FCBDE8104002F00EBF9EB000241C
:101D700002A9002003F058F81CA9002003F0CDF8B8
:101D80009DF80A00A0422FD09DF8700000909DF8A9
:101D900072309DF871209DF8731042A006F03CF956
:101DA0009DF870109DF87200CDE900019DF871302A
:101DB0009DF8732049A103A806F03AF99DF80A306E
:101DC0009DF809209DF808104FA006F025F99DF810
:101DD0000A0000909DF809309DF8082053A103A83F
:101DE00006F026F9594800689DF80A40C0E77FB51B
:101DF0000024ADF80C400121080701F096FE0120F7
:101E000003F0F2FB012001F069FD4FF4A0454120F1
:101E100001F02CFDBDF80C10491CADF80C1010B1F0
:101E200001282AD003E0BDF80C00A842EFD148A059
:101E300006F0F2F8012001F05DFD612001F016FDD1
:101E40000028FAD049A006F0E7F84FF4007000BF70
:101E500001F0FBFD012001F00DFE02F095FE7F2058
:101E60000190FF2002900094684602F028FF0028AD
:101E700002D105A006F0D0F87FBD41A006F0CCF855
:101E80004FF48070E4E700000A0D2052544320CA4A
:101E9000B1D6D3B3F5CABCBBAFCAA7B0DC200D0A1C
:101EA000000000005468652044617465203A2020D9
:101EB000593A323025302E3264202D204D3A2530CB
:101EC0002E3264202D20443A25302E3264202D20DD
:101ED000573A25302E32640D0A0000005468652000
:101EE000446174653A593A323025302E32642D4DB2
:101EF0003A25302E32642D443A25302E32642D5747
:101F00003A25302E326400005468652054696D65AE
:101F1000203A202025302E32643A25302E32643A81
:101F200025302E3264200D0A0D0A00005468652009
:101F300054696D65203A202025302E32643A2530D0
:101F40002E32643A25302E3264000000042800400E
:101F50000A0D204C534520B9CAD5CFA3ACD7AACE81
:101F6000AACAB9D3C34C5349200D0A000A0D204C0C
:101F7000534920C6F4B6AFB3C9B9A6200D0A000074
:101F80000A0D204C534520C6F4B6AFB3C9B9A620FC
:101F90000D0A00007CB50121202001F0A8FD0120E0
:101FA0008DF8040000218DF8061003218DF805102E
:101FB000074D4FF4C0648DF8070000946946284629
:101FC00001F0ECF92146284601F062FA7CBD0000E0
:101FD000001402401CB50121032001F088FD4FF4DC
:101FE0004070009000208DF8040003208DF805005B
:101FF00001248DF8074069464A4801F0CFF90220D4
:102000008DF8070000946946474801F0C7F91CBDE8
:102010002DE9F05F454CA61D2088002538B1308899
:10202000401C80B23080642801D9358025806088CA
:1020300038B17088401C80B27080642801D97580E6
:102040006580A08838B1B088401C80B2B080642818
:1020500001D9B580A580DFF8CC804FF400714046EF
:1020600001F002FA314FDFF8C0B04FF001094FF430
:10207000807ABF1E10B35146404601F0F5F9E8B131
:102080000121584601F0F0F9012817D04FF40071F2
:102090004446404601F0E8F901280DD1514620465A
:1020A00001F0E2F9012807D10121584601F0DCF9DD
:1020B000002801D187F80190BDE8F09F7D700121D3
:1020C000584601F0D1F9012816D04FF4007140466E
:1020D00001F0CAF9D8B15146404601F0C5F90028CF
:1020E000EAD1A088401C80B2A0800528E4D3B58046
:1020F000A58003203870DFE72088401C80B2208054
:102100000528D9D33580258087F80090D4E76088EA
:10211000401C80B260800528CED375806580022087
:10212000E8E7000000040240000002403200002006
:1021300010B5012001F0B9F8012812D100F038FDE6
:10214000012001F0BAF88D48D0F8A41251B1002155
:10215000C0F8A4128A49022008708A490878401CF5
:10216000087010BD0121F3E72DE9F0410E468046CD
:10217000012190B01C461546880501F0B8FC824F3D
:10218000384601F0BBF9384601F0BDFA0028FAD113
:102190004FF0007000907D48CDE901080020CDE9A6
:1021A00003064FF48051CDE906410911CDE90851EC
:1021B000059049020A9104210B910321CDE90C10ED
:1021C0000E906946384601F021FA10B0BDE8F08162
:1021D0002DE9FE4F0121172001F089FC012108465D
:1021E00001F08FFC02258DF80450002450208DF85A
:1021F00006400326DFF898B100908DF805604FF097
:1022000001088DF807806946584601F0C7F8DFF8E5
:1022100084A1C02769465046009701F0BFF8DFF857
:10222000789169464846009701F0B8F873205B4FF3
:1022300000906946384601F0B1F80D220421584655
:1022400001F035F90D220621584601F030F90D2232
:102250000721504601F02BF90D220621484601F0D6
:1022600026F90D220721484601F021F90D2200210F
:10227000384601F01CF90D220121384601F017F90A
:102280000D220421384601F012F90D220621504694
:1022900001F00DF90D220521384601F008F90D2253
:1022A0000621384601F003F900F072FF3C48202176
:1022B000048044818481048181804480C48000F052
:1022C00072FF0121084600F0D2FF012000F0B6FFA6
:1022D0004E208DF808008DF809508DF80A608DF8B1
:1022E0000B8002A800F001FFBDE8FE8F10B50121B0
:1022F000254801F0C4F9BDE81040012000F0A9BF55
:1023000010B5002000F0A5FF204828380168C90753
:10231000FCD1BDE810401C4801F0B1B970B51C46B5
:102320001546FFF7EDFF2146284600F025FA01216A
:10233000154801F0A4F9BDE87040012000F089BF04
:1023400070B514460D46064600F022FF144B0020DF
:10235000A90118805881988119817101998058804C
:10236000E001D880184600F01EFF012000F071FF48
:10237000BDE87040012000F061BF000000804242D3
:10238000000000203E000020286402402800055084
:102390000000024000040240000802400010024019
:1023A0004C0100202DE9FC4100240121602001F0B6
:1023B0009EFB01258DF8045000264FF402408DF855
:1023C0000660022700908DF805708DF80750694669
:1023D000FE4800F0E3FF8DF8045028028DF80660F7
:1023E00000908DF805708DF807506946F84800F0A8
:1023F000D5FFF84FC7F8A4620A2007F5297700F047
:10240000A2FDBE610A2000F09EFDBD6100F054FAFD
:102410000121FF2000F022FB8021122000F01EFB92
:10242000322000F090FD1C2000F037FB4FF6FF75C6
:1024300005EA00261D2000F030FB3043A0F5FE41E8
:10244000A23902D00120BDE8FC810A2000F025FB62
:1024500005EA00250B2000F020FB2843A0F51851C9
:10246000423905D042F24161884201D00220EAE7B8
:10247000D94D00BF05EB4400417815F8140000F079
:10248000EDFA0A2C02D2052000F05DFD641CA4B216
:10249000B42CEFD30020D6E770B5D04D002400BF98
:1024A00005EB4400417815F8140000F0D7FA641CDD
:1024B000A4B2082CF4D3C94D00242A3D05EB4400F6
:1024C000417815F8140000F0C9FA641CA4B2072C76
:1024D000F4D370BD70B5C14D00241C3D05EB440024
:1024E000417815F8140000F0B9FA641CA4B20E2C5F
:1024F000F4D370BD70B5B949103101EBC0050024AB
:1025000005EB4400417815F8140000F0A7FA641CAC
:10251000E4B2042CF4D370BD70B55E25412654247A
:1025200030B102280BD003280CD0042810D10CE0C5
:102530000021FF2000F092FA0021C7201AE0652553
:102540004F2405E05225662402E042253F267124EF
:102550000021FF2000F082FA4021C72000F07EFA1F
:102560002946CC2000F07AFA3146CD2000F076FAE8
:102570002146CE20BDE8704000F070BA000110B5D1
:102580002030C0B240F008040021FF2000F066FABD
:1025900000217C2000F062FA02217D2000F05EFA2A
:1025A00003217C2000F05AFA21467D2000F056FAE3
:1025B0002146BDE810407D2000F050BA10B5044619
:1025C0000021FF2000F04AFA00217C2000F046FAAA
:1025D00004217D2000F042FA09217C2000F03EFA1F
:1025E0002007010E7D2000F039FA0021BDE81040DF
:1025F0007D2000F033BA70B520252C4630B101287B
:1026000007D0032808D004280BD108E0182534246B
:1026100007E01C252A2404E02425162401E02825AF
:102620000C240021FF2000F019FA00217C2000F08A
:1026300015FA04217D2000F011FA07217C2000F01A
:102640000DFA20217D2000F009FA29467D2000F0B6
:1026500005FA21467D2000F001FABDE87040062110
:102660007D2000F0FBB970B5802600243546072890
:1026700017D2DFE800F0160406080C0F1300402400
:102680000FE018240DE018244026C02509E0182486
:10269000402601E01824A026402502E01824402608
:1026A000A6250021FF2000F0D9F900217C2000F0B0
:1026B000D5F921467D2000F0D1F905217C2000F0DC
:1026C000CDF931467D2000F0C9F92946BDE87040BA
:1026D0007D2000F0C3B910B504460121FF2000F0B1
:1026E000BDF9122000F0D9F920F002010CB141F03F
:1026F0000201BDE81040122000F0B0B92DE9F04110
:102700000D46044600EB520701EB53060121FF2062
:1027100000F0A4F9032000F0C0F906F003022946F6
:1027200000F0F00062F39F010143032000F096F9EE
:10273000C5F38701192000F091F9C6F387011A202B
:1027400000F08CF9322000F0A8F907F007022146CA
:1027500000F0C00062F3DF010143322000F07EF997
:10276000C4F3C701172000F079F9C7F3C701BDE82A
:10277000F041182000F072B970B5820701D0012035
:1027800070BD8A0701D0022070BD84088D08002129
:10279000FF2000F063F90421E02000F05FF9E1B2CE
:1027A0005A2000F05BF9E9B25B2000F057F90421F0
:1027B000C4F3012001EA951101435C2000F04EF9B9
:1027C0000021E02000F04AF9002070BD001802400E
:1027D0000014024000004342EC8600087E88000896
:1027E0002DE9F04107460E46900702D00120BDE8D2
:1027F000F081980701D00220F9E794089D08002194
:10280000FF2000F02BF90421E02000F027F9E1B2CD
:10281000512000F023F9E9B2522000F01FF9F9B27B
:10282000532000F01BF9F1B2542000F017F92846AC
:10283000802505EA5001702000EA1610084308219F
:1028400001EA54110143C7F302200143552000F06F
:1028500005F905EA9401572000F000F90021E02075
:1028600000F0FCF80020C2E770B50D4604460021D8
:10287000FF2000F0F3F80421E02000F0EFF8C4F3AB
:10288000C701C02000F0EAF8C5F3C701C12000F07D
:10289000E5F86007810E05F007000843802101EA92
:1028A000141101438C2000F0D9F80021E02000F041
:1028B000D5F8002089E700001CB50121082001F0AF
:1028C00016F9C020009001208DF8040000218DF839
:1028D000061002218DF80510834C8DF8070069461B
:1028E000204600F05BFDC021204600F0D1FD2068AD
:1028F00020F440402060206840F4804020601CBDEF
:1029000070B57A4C0120C4F89C02C4F898023220B9
:1029100004F5267400F0E9FA00256560322000F025
:10292000E4FA256070BD70B5704C0020C4F89C02BC
:10293000322004F5267400F0D8FA012525603220F3
:1029400000F0D3FA6560BDE87040322000F0CDBAE7
:1029500070B5322000F0C9FA644C0120C4F89C0222
:10296000C4F89802322004F5267400F0BEFA00255F
:102970002560322000F0B9FA6560BDE87040322071
:1029800000F0B3BA2DE9F0410025584C0746A8469F
:102990000126380602D5C4F89C6201E0C4F89C8286
:1029A0007806070E322000F0A0FAC4F898623220B0
:1029B00000F09BFAC4F898826D1CEDB2082DE8D3A4
:1029C000494D286820F4404028602868286032205B
:1029D00000F08BFAC4F89862322000F086FAD4F83E
:1029E0001C0200B10120C4F89882296821F44041FA
:1029F0002960296841F480412960BDE8F0812DE912
:102A0000F047394C0025206820F4404020602068C1
:102A10002060364F08264FF00108A946322000F00A
:102A200064FAC7F898826806050ED7F81C0208B148
:102A30006D1CEDB2322000F058FAC7F89892761E5D
:102A400016F0FF06EAD1206820F44040206020689C
:102A500040F4804020602846BDE8F08770B50D4600
:102A600006460024FFF74CFF6020FFF78BFF00B104
:102A70000124642000F039FA3046FFF783FF00B1EB
:102A80000124642000F031FA2846FFF77BFF00B1F3
:102A90000124FFF748FF204670BD10B50446FFF73C
:102AA0002FFF6020FFF76EFF642000F01EFA204623
:102AB000FFF768FF642000F018FAFFF734FF642086
:102AC00000F013FAFFF71CFF6120FFF75BFF6420A3
:102AD00000F00BFAFFF793FF0446FFF739FFFFF70B
:102AE00022FF204610BD0000000C02400080414241
:102AF0007FB50D4604460121022001F016F80020A2
:102B00000194ADF80050254CADF80200ADF8080076
:102B10006946204601F0FCFA01221146204601F0E8
:102B200080FE0121204601F06BFB1D208DF80C007A
:102B300001208DF80D0003218DF80E108DF80F0087
:102B400003A800F0D2FA7FBD10B5144C0121204635
:102B500001F07BFE012819D111490878401CC2B24E
:102B60000A70642A10D3002008700E4908600E48CD
:102B7000D0F8A81281B10021C0F8A8120B48017842
:102B8000012901D001210170FFF742FA2046BDE87A
:102B90001040012101F065BE0121EDE70004004075
:102BA0003F0000204400002000804242010000203D
:102BB00070B5834C2078834D80B90021284600F001
:102BC0005EFD284600F09FFD0028FAD1284600F05F
:102BD00076FDC0F5F840A060012020702078022822
:102BE0000DD178484FF4F841001D0160284600F0EF
:102BF00064FD0121284600F042FD0020207070BDD8
:102C000013B56F4901AA0C316FA004F0F3FA01006B
:102C100002D06EA005F000FA01994A698878921EE8
:102C20004243674842618978C268514301611CBDD3
:102C300013B5634901AA0C3163A004F0DBFA01006B
:102C400002D062A005F0E8F9019841698278891EF6
:102C500051435B4A51618078D368490858431061F9
:102C6000A1EB500342085DA005F0D6F91CBDADF5FF
:102C7000865DFFF711FCFFF7ABFA4FF480631A0192
:102C80004FF4F8416348FFF76FFA4FF416714FF4B1
:102C90004870FFF771FDFFF729FB41F23407484CFC
:102CA0006F440DF1100920780128FCD1594E584687
:102CB0000399FFF7BDFF606941082069A1EB50004F
:102CC0004CF25031884207D953A005F0A5F93EA136
:102CD000039803F0F7FCE6E702A9002002F01DF9D3
:102CE0009DF80A0041F27C0500906D449DF8093082
:102CF0009DF80B204DA1284605F09AF901A9002066
:102D000002F092F89DF806000090A5F114089DF8D5
:102D100005309DF804204AA1404605F089F9606815
:102D20004346411C616000902A464AA1384605F09E
:102D30007FF9384605F0E0FA00252946284612E0DA
:102D4000325CFF2A0ED132185278D82A02D0D92A02
:102D500003D007E08246012104E019B1A0EB0A0587
:102D6000AD1C04E0401CA268B0EB820FE8D35644CF
:102D700055B10A223946484603F0E1FE5FEA000BEE
:102D800005D038A005F048F9022020708BE73CA060
:102D900005F042F941F290032A466B4431464D4614
:102DA000484604F02FF85FEA000B014606D03BA02E
:102DB00005F032F9284604F041F9E5E73DA0F7E7D0
:102DC0004000002028640240303A0000B3F6CFD61D
:102DD000B4EDCEF3A3A82564A3A90000D7DCC8DD19
:102DE000C1BF3A20202531306C75204B420ABFC943
:102DF000D3C3C8DDC1BF3A20202531306C75204BCC
:102E0000420AD2D1D3C3C8DDC1BF3A202575204BB9
:102E1000420A00005C010020C8DDC1BFB2BBD7E39D
:102E20002CD0E8D2AAC9BEB3FD0A0000323025304A
:102E30002E32642D25302E32642D25302E32640042
:102E400025302E32642D25302E32642D25302E3241
:102E50006400000025732E2573282564292E6A70CE
:102E600067000000A3A1A3A1B4F2BFAA2FB4B4BD10
:102E7000A8CEC4BCFECAA7B0DCA1A30D0A00000006
:102E8000A1B7B4F2BFAA2FB4B4BDA8B2E2CAD4CDE0
:102E9000BCC6ACB3C9B9A60D0A000000A3A1A3A18A
:102EA000CEC4BCFED0B4C8EBCAA7B0DCA3BA2825F8
:102EB00064290A00D0B4C8EBCDEAB3C93A28256426
:102EC000290A000010B504466FF0040000F04EF926
:102ED0002948E10801EB41020170C2EBC1114FF634
:102EE000FF7202EAC101418010BD234909784843BD
:102EF0004FF0E021486100228A61086940F001003A
:102F000008610869C30701D0C003FAD5086920F039
:102F1000010008618A6170471749498848434FF0AA
:102F2000E021486100228A61086940F001000861DF
:102F30000869C30701D0C003FAD5086920F0010071
:102F400008618A61704770B54FF40775B0FBF5F101
:102F5000CCB2B0FBF5F105FB110604E02846FFF703
:102F6000DBFF641EE4B2002CF8D1002E03D0304603
:102F7000BDE87040D0E770BD58000020704744495C
:102F80000A885206FCD5C2B28A807047F0B5064660
:102F9000012187B0084600F0AAFD0121102000F0B1
:102FA000CEFD3C4F07220921384600F080FA072267
:102FB0000A21384600F07BFA4FF4C06004900220EA
:102FC0008DF814008DF8150000248DF816400125A9
:102FD0008DF8175004A9384600F0E0F9ADF8044028
:102FE000ADF80640ADF80840ADF80C400C20284C78
:102FF000ADF80A0000966946204600F094FE0121D3
:10300000204600F001FF4021204600F0BBFF0122D6
:1030100040F22551204600F096FF25208DF818003B
:1030200003208DF819008DF81A008DF81B5006A8A2
:1030300000F05BF807B0F0BD70B5154C40F22551BB
:10304000204600F0A2FF00280ED0204600F006FF28
:10305000C2B2114801880B0406D44C044FF000039F
:1030600006D50A2A01D0038070BD41F400410DE06D
:103070000D2A09D0C1F30D04084D491C89B22A5507
:103080000180C729EFD870BD41F48041018070BD37
:1030900000100140000002405C0000205CF10120B3
:1030A0000948804709480047FEE7FEE7FEE7FEE7DC
:1030B000FEE7FEE7FEE7FEE7FEE7FEE70448054918
:1030C000054A064B70470000A30400088901000868
:1030D00088F2012088FE012088F4012088F4012074
:1030E0002849084328490860704730B50F22C47842
:1030F00001780123FCB1244C246801F1E02104F49F
:10310000E064C4F5E064C4F30724C4F10405E240BC
:103110004478AC408578154025432A0181F8002485
:10312000007800F01F018B404009800000F1E02092
:10313000C0F8003130BD01F01F0083404809800015
:1031400000F1E020C0F8803130BD104A1140014349
:103150000D48001F016070470B4A121D00291168BD
:1031600001D0014300E08143116070474FF0E0213E
:103170000428086903D020F004000861704740F07B
:103180000400FAE70000FA050CED00E080FFFF1FE5
:103190004B4800210160C1601F2242618161C16111
:1031A00001624162704730B5454A116844F201033B
:1031B00099431160136840F6F2718B43018844888B
:1031C000C588214384882C432143048921434489B1
:1031D0008089214301431943116030BD00210180E2
:1031E00041808180C1800181418181817047016876
:1031F0004FEA314232490A6240684FEA3040486241
:1032000070472F490028086802D040F0040001E010
:1032100020F0040008607047C178006861F31F6007
:1032200027498861704726490028086802D040F085
:10323000080001E020F008000860704720490028DD
:10324000086802D040F4804001E020F4804008602B
:1032500070471B490028086802D040F0010001E0D7
:1032600020F00100086070471548806A7047144AD2
:103270000029D16801D0014302E0C04380B201407F
:10328000D1607047024600200D49130B06D0022B77
:1032900006D00969114200D0012070478968F9E71A
:1032A0004968F7E70649486170470549024600202A
:1032B0000969114200D001207047014948617047F7
:1032C00000000550824910B5884206D10121084608
:1032D00000F03FFC002101205BE07E49884206D1DE
:1032E0000121022000F035FC0021022051E07A4942
:1032F000884206D10121042000F02BFC002104208B
:1033000047E07649884206D10121082000F021FCDF
:10331000002108203DE07249884206D10121102099
:1033200000F017FC0021102033E06E49884206D1DE
:103330000121202000F00DFC0021202029E06A4915
:10334000884206D10121402000F003FC00214020EA
:103350001FE06649884206D10121802000F0F9FB78
:103360000021802015E06249884202D101218415A4
:103370000AE06049884202D10121441504E05E4917
:1033800088420AD101210415204600F0E2FB002109
:103390002046BDE8104000F0DCBB10BDF0B50023B6
:1033A000012403270D6804FA03F21540954242D127
:1033B000D0F800C05E0007FA06F52CEA050CC0F84C
:1033C00000C091F804C0D0F800E00CFA06FC4CEA0A
:1033D0000E0CC0F800C091F804C0BCF1010F02D07F
:1033E000BCF1020F1FD1D0F808C02CEA050CC0F8C0
:1033F00008C091F805C0D0F808E00CFA06FC4CEAC9
:103400000E0CC0F808C0D0F804C02CEA020CC0F8BA
:1034100004C0426891F806C00CFA03FC1FFA8CFC49
:1034200042EA0C024260C268AA43C260CA79C56817
:10343000B2402A43C2605B1C102BB3D3F0BD4FF6E1
:10344000FF7101600021017141718171C17170478B
:1034500008B541F480320092C261C1610099C16136
:10346000C169C069009008BD0246002012690A4285
:1034700000D001207047006980B2704702460020EA
:1034800052690A4200D001207047406980B27047FB
:1034900001837047418370470AB1018370474183BC
:1034A00070474161704742694A40426170474B072B
:1034B000DB0E9A40C90810B500EB8100016A0F24A9
:1034C0009C40A1430162016A1143016210BD0000EA
:1034D000000002400004024000080240000C0240CC
:1034E000001002400014024000180240001C02407C
:1034F0000020024000240240002802402DE9F04351
:10350000016821F0010101600021016041608160DA
:10351000C160016121214161B849B84A3D25103996
:10352000904202D18D60BDE8F083B44A4FF47466D6
:103530001832904201D18E60F5E7B04A4FF474170B
:103540003032904201D18F60EDE7AC4A4FF0746C9D
:103550004832904202D1C1F808C0E4E7A74BA84A1C
:103560006033984201D1CA60DDE7A44CA54B7834A2
:10357000A04201D1CB60D6E7DFF88082A24C08F1EF
:103580009008404501D1CC60CDE7DFF870824FF064
:103590003D5908F1A808404502D1C1F80C90C2E796
:1035A0009A49DFF868820839404501D10D60BAE7D1
:1035B000964D1835A84201D10E60B4E7934D3035D1
:1035C000A84201D10F60AEE7904D4835A84202D124
:1035D000C1F800C0A7E78D4D8C496035091FA8428E
:1035E00001D10A609FE7894A7832904201D10B608D
:1035F00099E7864A9032904201D10C6093E7834A62
:10360000A83290428FD1C1F800908CE730B50368A2
:103610007F4ACC6813400A682243D1E905452C4310
:103620002243CC6922430C6A22434C6A22438C6AAF
:1036300022434C6B22438C6B22431A430260426943
:1036400022F00703D1E90B2422431A4342610A699D
:1036500042604A6882608968C16030BD00210160B3
:1036600041608160C160016141618161C16101624C
:1036700041628162C16201634163816370470029D5
:10368000016802D041F0010101E021F00101016077
:1036900070470029016802D041F4004101E021F4A3
:1036A0000041016070470029016802D041F020010B
:1036B00001E021F0200101607047416070474068DF
:1036C00080B27047002A026802D042F4002201E072
:1036D00022F400220260016170470029016802D0D3
:1036E00041F4802101E021F48021016070470AB19A
:1036F00001617047C16070470146002009680903F5
:1037000000D501207047014600200968C90700D094
:1037100001207047406900F03800704702463B4B7B
:1037200000209A4202D2354A103A01E0374A103A54
:103730008B0001D5526800E01268364B1A400A42ED
:1037400000D001207047314A904202D22B481038F5
:1037500001E02E4810382F4A8B0001EA020101D502
:10376000C1607047816070470B0607D5436912B18D
:1037700043F0800301E023F080034361802908D0F7
:10378000002A026801F01E0101D00A4300E08A43CA
:103790000260704730B51D4A0024904202D2174B98
:1037A000103B01E0194B103B1B4A114205D01E2271
:1037B00002EAD12502682A4002E0406900F0800256
:1037C000880001D5586800E01868124B184008427C
:1037D00001D002B10124204630BD0C4A904202D2F1
:1037E0000648103801E0094810380A4A8B0001EAFF
:1037F000020101D5C16070478160704710600240CE
:103800003D000020400F002000003D2010640240D9
:103810003F801CF07D0F7D0F3C0F3C0FF848016886
:1038200041F001010160F64A00210832116002688E
:10383000F44B1A400260031DF34A1A60F04BF34A3E
:1038400084331A60F04A103A1B1D1A60026822F491
:1038500080220260EA480C300160181D0160704748
:10386000E7490022891C0A70087070470246002050
:10387000510901290CD002290CD0E14974310968A1
:1038800002F01F02012393400B4200D00120704739
:10389000DB49F4E7DA497031F1E718B500204FF45D
:1038A000A04400903120FFF7E1FF0099491C0091EE
:1038B000A14201D00028F5D03120FFF7D7FF002822
:1038C00000D0012018BDCE490A6822F0F80242EA71
:1038D000C00008607047CE4908607047C8490022A0
:1038E00070310A700A70012802D0042801D1052025
:1038F00008707047C7490860704741EA82115A084A
:1039000010B5C54B029C03EB02421143014341EA4F
:103910000460BB49091D086010BDBD4908667047B9
:10392000800140EA0170B649843108607047B849A7
:1039300088667047800140EA0160B14940EA027040
:10394000883108607047B24908677047B049C86459
:103950007047AB4A08321368084323F0EC631843FE
:1039600010607047A64A08321368084323F0784372
:10397000184310607047A24A0832116821F0030111
:103980000143116070479E480830006800F00C0049
:1039900070479B4A0832116821F0F0010143116021
:1039A0007047974A0832116821F4E05101431160D1
:1039B0007047934908310A6822F4604242EAC00025
:1039C0000860704770B58E4A08321168934C11F048
:1039D0000C0104D06610042903D0082903D0046028
:1039E0001BE0066019E08649091D0B68C3F380558A
:1039F0000B6803F03F0315B1B6FBF3F301E0B4FB32
:103A0000F3F30C680968C4F388146343C1F30141FC
:103A1000491C4900B3FBF1F1016011680F2303EA6F
:103A200011117F4B5C5C0168E1404160146807251F
:103A300005EA94241C5D21FA04F48460126805EA06
:103A400052329A5CD140C16070BDC0F3012103299C
:103A500008D16B4A0832116821F4F813714901400A
:103A600019431160664970310A68C0F30B000243C4
:103A70000A607047674944390860704765494039B2
:103A8000086070476249C1F85C0170475C4A8C323B
:103A90001168401E21F01F01014311607047584911
:103AA0008C310A686FF0FF0322F4F85203EB002018
:103AB000104308607047524A8C32116821F440115B
:103AC0000143116070474E4A8C32116821F4400165
:103AD0000143116070474A4A8C32116821F4403129
:103AE0000143116070475049C1F8E0017047444AF2
:103AF00030320029116801D0014300E08143116098
:103B000070473F4A34320029116801D0014300E078
:103B10008143116070473A4A38320029116801D058
:103B2000014300E0814311607047354A403200296B
:103B3000116801D0014300E0814311607047304AB1
:103B400044320029116801D0014300E08143116033
:103B500070472B4A10320029116801D0014300E060
:103B6000814311607047264A14320029116801D040
:103B7000014300E0814311607047214A1832002957
:103B8000116801D0014300E08143116070471C4A75
:103B900020320029116801D0014300E08143116007
:103BA0007047174A24320029116801D0014300E010
:103BB000814311607047124A50320029116801D0C8
:103BC000014300E08143116070470D4A54320029DF
:103BD000116801D0014300E0814311607047084A39
:103BE00058320029116801D0014300E0814311607F
:103BF0007047034A60320029116817D0014316E06C
:103C000000380240FFFFF6EA1030002400300020A8
:103C100000004742800E47420000FFFF0024F400EE
:103C200064000020FFFCFF0F001047428143116039
:103C30007047194A0029116801D0014300E081430F
:103C40001160704714490C310128086803D020F036
:103C500008000860704740F00800FAE70E4A573A3B
:103C60000029117801D0014300E0814311707047B1
:103C700009481030016841F08071016070470146C9
:103C8000054A0020583A12680A4200D001207047C5
:103C9000014956390870704764380240CD4910B563
:103CA000884206D101211020FFF77BFF0021102060
:103CB00020E0C949884202D101214C0429E0C749CA
:103CC000884202D101218C0423E0C549884202D1F7
:103CD0000121CC041DE0C349884202D101210C0519
:103CE00017E0C149884209D101212020FFF759FF7F
:103CF00000212020BDE81040FFF753BFBB49884298
:103D000002D101218C0704E0B94988420AD101217E
:103D100044052046FFF73BFF2046BDE81040002148
:103D2000FFF735BF10BD7FB50446008A0D4620F46D
:103D30004051E88808432082A08941F20C61884301
:103D4000A9882A8911436A8902431143A181A08A63
:103D500020F44071A8890843A0826846FFF732FE2C
:103D60009C48844202D0A048844201D1039800E0DC
:103D70000298A189090400EBC00101EB0010296839
:103D800001D5490000E08900B0FBF1F26420B2FBEC
:103D9000F0F109010B096FF018056B4302EB830288
:103DA000A3891D044FF0320306D503EBC202B2FB18
:103DB000F0F000F0070005E003EB0212B2FBF0F0B8
:103DC00000F00F00084320817FBD4FF416510160C1
:103DD00000218180C18001810C2242818181704754
:103DE00010B5028A4C8822F470630A8822438C88BA
:103DF000C9880C4322431A43028210BD002101806E
:103E000041808180C18070470029818902D041F4BE
:103E1000005101E021F4005181817047028B02F4CE
:103E20007F420283028B0A43028370470029818903
:103E300002D041F4004101E0C1F30E0181817047DD
:103E40000029818A02D041F4006101E021F400617F
:103E500081827047C1F30801818070478088C0F378
:103E600008007047028A22F00F020282028A0A4387
:103E7000028270470029818902D041F0020101E0ED
:103E800021F0020181817047828922F400628281DF
:103E900082890A4382817047028A22F020020282CC
:103EA000028A0A43028270470029018A02D041F443
:103EB000804101E021F4804101827047818941F015
:103EC0000101818170470029818A02D041F00801F7
:103ED00001E021F0080181827047028BD2B2028397
:103EE000028B42EA0121018370470029818A02D0B6
:103EF00041F0200101E021F020018182704700297A
:103F0000818A02D041F0100101E021F0100181828C
:103F10007047828A22F004028282828A0A43828265
:103F200070470029818A02D041F0020101E021F0AE
:103F3000020181827047002A828A01D00A4300E090
:103F40008A438282704710B5C1F3421301F01F0407
:103F50000121A140012B07D0022B07D01430002AE9
:103F6000026805D00A4304E00C30F8E71030F6E7A9
:103F70008A43026010BD0246002012880A4200D027
:103F800001207047C9430180704730B501F01F021E
:103F900001240025C1F3421304FA02F2012B0FD0D1
:103FA000022B0FD0838A4FEA11210088134204FAB2
:103FB00001F400EA040001D000B10125284630BD1B
:103FC0008389F0E7038AEEE70A0A01219140C94399
:103FD000018070470010014000440040004800404C
:103FE000004C0040005000400014014000780040A8
:103FF000007C0040FE4910B5884206D101210846E8
:10400000FFF7CFFD002101205BE0B0F1804F09D028
:10401000F84988420DD101210220FFF7B8FD0021A7
:10402000022070E001210846FFF7B1FD00210120C8
:1040300069E0F149884206D101210420FFF7A7FD7C
:10404000002104205FE0ED49884206D101210820CB
:10405000FFF79DFD0021082055E0E949884206D17F
:1040600001211020FFF793FD002110204BE0E549CE
:10407000884206D101212020FFF789FD0021202060
:1040800041E0E149884206D101210220FFF789FD84
:104090000021022015E0DD49884202D101210C04F3
:1040A0000AE0DB49884202D101214C0404E0D949ED
:1040B00088420AD101218C042046FFF772FD0021BD
:1040C0002046BDE81040FFF76CBDD349884206D1B9
:1040D00001214020FFF75BFD0021402013E0CF4984
:1040E000884206D101218020FFF751FD0021802068
:1040F00009E0CB4988420AD1841501212046FFF707
:1041000046FD00212046BDE81040FFF740BD10BD30
:1041100030B50288B64BBC4C98420DD0A0420BD0B3
:10412000B0F1804F08D0B34DA84205D0B24DA8429F
:1041300002D0B24DA84203D122F070054A882A432A
:10414000AF4DA84206D0AF4DA84203D022F440752F
:104150000A892A4302804A68C2620A880285984214
:1041600001D0A04201D1897A01860121818230BD2E
:104170004FF0FF3141600021018001814180817257
:104180007047018582827047028822F070020A43DC
:104190000280704741627047C1627047406A704751
:1041A000008D70470029018802D041F0020101E032
:1041B00021F00201018070470029018802D041F0FE
:1041C000040101E021F00401018070470029018809
:1041D00002D041F0800101E021F0800101807047B0
:1041E000028822F00802028002880A430280704797
:1041F000028822F44072028002880A4302807047DB
:104200000029018802D041F0010101E021F0010103
:104210000180704730B5028C22F001020284028CCA
:104220008388048B22F0020224F073050C882C434F
:104230008D8915434A882A436D4DA84202D0724D9C
:10424000A8420DD122F00805CA8923F440732A43FD
:1042500022F004058A882A430D8A1D434B8A2B438A
:104260008380048389684163028430BD70B5028C09
:1042700022F010020284028C8488038B0D8823F4C0
:10428000E6464FF6FF7303EA052535438E8922F093
:10429000200203EA061616434A8803EA0212324352
:1042A000534EB04202D0584EB04215D122F0800693
:1042B000CA8924F4406403EA0212324322F0400621
:1042C0008A8803EA021232430E8A03EA86062643EC
:1042D0004C8A03EA840434438480058389688163BB
:1042E000028470BD70B5028C22F480720284028C4C
:1042F0008488838B0D8823F073031D4322F400739D
:104300008E894FF6FF7202EA06261E434B8802EAA8
:1043100003233343364EB04202D03B4EB04215D158
:1043200023F40066CB8924F4405402EA0323334388
:1043300023F480668B8802EA032333430E8A02EA61
:10434000061626434C8A02EA04143443848085838B
:104350008968C163038470BD70B5028C22F48052F9
:104360000284048C8288838B0D8823F4E6464FF602
:10437000FF7303EA0525354324F400568C8903EACC
:10438000043434434E8803EA06362643184CA042D0
:1043900002D01D4CA04205D122F480440A8A03EACF
:1043A000821222438280858389680164068470BDFD
:1043B000002101804180818081608181C1810182F1
:1043C0004182704730B50124058C00F118038C4000
:1043D000A543058431B308292CD0091FC1F34E0031
:1043E0001844016848F6FF731940016001681AE03B
:1043F000000001400004004000080040000C0040A4
:104400000010004000140040000401400040014042
:10441000004401400048014000180040001C0040DA
:104420000020004006E04FF6FF7303EA022211432A
:10443000016030BD03EB510001684FF68F731940E6
:1044400001600168F3E74163704781637047C163AE
:10445000704701647047028B22F070020A430283A6
:104460007047028B4FF6FF7322F4E04203EA01210A
:10447000114301837047828B22F070020A438283CA
:104480007047828B4FF6FF7322F4E04203EA01216A
:10449000114381837047028B22F008020A43028392
:1044A0007047028B4FF6FF7322F4006203EA01218A
:1044B000114301837047828B22F008020A438283F2
:1044C0007047828B4FF6FF7322F4006203EA0121EA
:1044D000114381837047028B22F004020A43028356
:1044E0007047028B4FF6FF7322F4806203EA0121CA
:1044F000114301837047828B22F004020A438283B6
:104500007047828B4FF6FF7322F4806203EA012129
:10451000114381837047028B22F080020A43028399
:104520007047028B4FF6FF73C2F30E0203EA0121BC
:10453000114301837047828B22F080020A438283F9
:104540007047828B4FF6FF73C2F30E0203EA01211C
:10455000114381837047028C22F002020A430284D5
:104560007047028C22F008020A4302847047028CD2
:104570004FF6FF7322F0200203EA01111143018478
:104580007047028C4FF6FF7322F0800203EA01119C
:10459000114301847047028C4FF6FF7322F40072BE
:1045A00003EA0121114301847047028C4FF6FF7327
:1045B00022F4006203EA0121114301847047028C56
:1045C0004FF6FF7322F4005203EA013111430184D4
:1045D000704710B50123048C8B409C430484038CEA
:1045E0008A401343038410BD10B50423048C8B4010
:1045F0009C430484038C8A401343038410BD828B44
:1046000022F440628283828B4FF6FF7303EA01211A
:104610000A4382837047828B22F00C028283828B52
:104620000A4382837047028B22F440620283028B2A
:104630004FF6FF7303EA01210A4302837047F0B586
:10464000048C24F010040484078B068C4FF6FF744E
:1046500004EA011527F4734704EA0331394304EAF5
:1046600002220A4326F0A001294341F010010283EF
:104670000184F0BD028B22F00C020283028B0A43FC
:10468000028370472DE9F0410D460E884988AA88BB
:104690002B8904460EB3042E26D0082E268C4FF606
:1046A000FF7028D026F480562684A78B268C00EA3B
:1046B000022200EA013127F473473A4300EA03304B
:1046C000104326F420420A4342F48051A0832184FF
:1046D000E9882046BDE8F04191E700F062F9E988F9
:1046E0002046BDE8F041C5E7FFF7A9FFE98820466D
:1046F000BDE8F04197E726F480762684A78B268CC8
:1047000000EA012100EA0310104327F0F3073843C1
:1047100026F420620A4342F48071A0832184E98850
:104720002046BDE8F04176E700210180418001226A
:104730008280C180018170472DE9F0410C4600263E
:1047400049880746012501B90226A288012A00D11D
:104750000225208823890028384610D0FFF76FFFF4
:10476000E1883846FFF75FFF23892A4631463846FD
:1047700000F017F9E1883846BDE8F0417AE700F02B
:1047800010F9E1883846FFF775FF23892A4631463C
:104790003846FFF754FFE1883846BDE8F04142E76C
:1047A000406B7047806B7047C06B7047006C704700
:1047B00010B50A884B88CC881A438B8823431A4348
:1047C0000B891A434B8989891A430A43A0F844206C
:1047D00010BD0021018041808180C1800181418123
:1047E00081817047002930F8441F02D041F4004114
:1047F00001E0C1F30E01018070470029818802D0D9
:1048000041F0040101E021F004018180704700299A
:10481000818802D041F0010101E021F00101818095
:104820007047002A828901D00A4300E08A438281CE
:1048300070478182704702460020128A0A4200D0E7
:1048400001207047C9430182704702460020138A45
:1048500092890B4202EA010202D0002A00D0012014
:104860007047C943018270471143A0F84810704750
:10487000002A828901D00A4300E08A43828170477E
:104880000029818802D041F0080101E021F00801EF
:1048900081807047018921F00701018170470289F9
:1048A00022F070020A430281704700B50346FFF709
:1048B000F6FF188940F00700188100BD70B5164654
:1048C0000D46602904464FF0010231460AD000F03F
:1048D00068F829462046FFF7E2FF208940F00700EC
:1048E000208170BDFFF7ABFEF3E730B504894FF6CA
:1048F000FF7505EA03231343E4B20B43234303810B
:1049000030BD10B50446FFF7F0FF208940F0770076
:10491000208110BD10B50446FFF7E7FF208940F461
:104920008040208110BD828822F0700282808288BF
:104930000A4382807047028922F0070202810289BD
:104940000A4302817047028922F0800202810289B3
:104950000A430281704770B50589048B068C25F0E7
:1049600007050D434FF6FC410C4040F201110C438A
:104970004FF6FF7101EA031126F02206114331437D
:1049800005810483018470BD0029818802D041F033
:10499000800101E021F0800181807047A0F8501073
:1049A000704770B5048C24F001040484058B048CDA
:1049B0004FF6FF7606EA0313134325F0F3052B4366
:1049C00024F00A020A4342F001010383018470BD0E
:1049D00010B50121CC022046FFF7E3F82046BDE8E0
:1049E00010400021FFF7DDB830B5644B1A6847F678
:1049F000FF618A43017D8468C568214344682C4374
:104A0000214304680069214301431143196030BD0B
:104A100000210175016041608160C16001617047E2
:104A20005749C1F8A00070475449091F08607047F2
:104A30005248001F006800F0030070474F4A10B54D
:104A4000121D01681160121D1168CB0AD0E9011412
:104A50002143D0E903400443DB02214319431160A1
:104A600010BD0021016041608160C160016170473B
:104A700042480C300068C0B27047404908B5103158
:104A800008440090006808BD3C4A10B52032016817
:104A90001160121D41681160121D116821F0F703A9
:104AA000D0E902142143D0E90440044321431943CF
:104AB000116010BD4FF0FF31016000214160816045
:104AC000C1600161416170472C482C30006870471B
:104AD0002A487C300068704728497C31086070475C
:104AE00026484430006870472649086070472549C9
:104AF000091D086070472349083108607047214943
:104B00000C31086070471E49C1F8AC0170471C4960
:104B1000C1F8B0017047012181431948C0F8B411B0
:104B200070471749C1F8B801704716491439086031
:104B30007047124A38320029116801D0014300E061
:104B400081431160704701460C4A002030321268E0
:104B50000A4200D00120704708493431086070478C
:104B60000146064A0020303212680A4200D0012075
:104B7000704702493431086070470000042C01403E
:104B800000802542A085254218B50020FB490090F1
:104B9000CA20086053200860F8481838026822F0DC
:104BA000A00202604FF400340268009B02F0200271
:104BB0005B1C0093A34201D0002AF5D00068800658
:104BC00001D5012000E00020FF220A6018BD08B5D1
:104BD00000200090E94818380168490612D44FF0C7
:104BE000FF31016083130168009A01F04001521CFB
:104BF00000929A4201D00029F5D00068400601D405
:104C0000002008BD012008BD78B50024DB4ECA2075
:104C100000942546306053203060FFF7D8FFE0B3A2
:104C2000D64824380460D54942F201102039086082
:104C3000091D086800F0070008608D13081D026850
:104C4000009B02F004025B1C0093AB4201D0002ADF
:104C5000F5D00268520729D50A680C60C74A4FF69A
:104C6000FF71103A1160121FC5491160C3490C3918
:104C70000C60091D0C60091D0C60C04908310C60F6
:104C8000BE4918310C60BD4920310C60091D0C6013
:104C90000460BA481C30046000E003E0FFF774FFD2
:104CA00020B10125FF203060284678BD0025F9E7B6
:104CB000B2481838016821F080010160704770B572
:104CC000AE4E04460025CA20306053203060FFF706
:104CD0007EFFA8B1A9481C38016821F0400101609D
:104CE0000168226811430160A448A168143801607A
:104CF0000168A28841EA02410160FFF7D9FF01255E
:104D0000FF203060284670BD002101607F21416096
:104D1000FF2181607047994908B1FF2002E0CA2055
:104D2000086053200860704770B5944C0646002513
:104D3000CA20206053202060FFF749FF60B18F48F0
:104D40001C38016816B141F0100101E021F010019A
:104D50000160FFF7ADFF0125FF202060284670BDF0
:104D6000864ACA2111605321116084491C390028E8
:104D7000086802D040F0200001E000F0DF00086089
:104D8000FF20106070472DE9F0417E4F0C46020075
:104D90004FF0000620783A6831464FEA426204D06C
:104DA000002A15DA00F005FC13E0002A00DBE170B0
:104DB00000F0F3FB0504607800F0EFFB45EA002506
:104DC000A07800F0EAFB0543E07845EA00450AE0F8
:104DD000E170A078217840EA01456078E17800022E
:104DE00040EA01400543654CCA2020605320206002
:104DF000FFF7EDFE68B16448054062480838056079
:104E0000FFF756FF3868800602D4FFF7BDFE00B1F9
:104E10000126FF2020603046BDE8F0810021C170EE
:104E2000017041708170704710B50C4655490839C2
:104E30000968554A1140C1F305422270C1F30623A7
:104E4000637001F07F03A370402303EA1141E17016
:104E500000280BD1104600F0ACFB2070607800F009
:104E6000A8FB6070A07800F0A4FBA07010BD4348C0
:104E7000001D00684349091F0968704770B50C465A
:104E8000010060784FF0000629D000F092FBA07876
:104E900000F08FFBA078E17840EA01456078217846
:104EA000000240EA41300543344CCA2020605320C0
:104EB0002060FFF78CFE70B1344805403148001F78
:104EC0000560FFF7F5FE2F480068800602D4FFF763
:104ED0005BFE00B10126FF202060304670BDC10698
:104EE00003D520F010000A306070E07800F055FB28
:104EF0000504607800F051FB45EA0025A07800F039
:104F00004CFB0543207845EA4035CDE7012101708F
:104F1000817041700021C170704710B50C4619496D
:104F2000091F0968194A11400A0CE270C1F30423F1
:104F3000637001F03F03A370C1F342312170002878
:104F40000BD1104600F035FBE070607800F031FBCB
:104F50006070A07800F02DFBA07010BD70B51446F5
:104F60000D46084A0021002810684FEA40600FD023
:104F7000002826DA207800F01CFB23E024280040DB
:104F8000FF007F00082800407F7F7F003FFFFF0079
:104F9000002800DBE170207800F0FFFA060460785A
:104FA00000F0FBFA46EA0026A07800F0F6FA064385
:104FB000E07846EA0046207B00F0EFFA46EA00601F
:104FC00010E0E170207B00F0F4FAA0782178E2781C
:104FD00040EA01406178090241EA02410843217B2D
:104FE00040EA0160A168FA4A084361680843CA219F
:104FF000116053211160B5F5807F04D0111F086046
:10500000FF20106070BDF2490839F8E70021C17037
:1050100001704170817001228160027341607047AC
:1050200010B51446B1F5807F2BD0E949091F0968F6
:10503000C1F305422270C1F30623637001F07F03C0
:10504000A370402303EA1143E370C1F305632373A4
:1050500001F0804301F08031C4E9011300280FD131
:10506000104600F0A6FA2070607800F0A2FA607096
:10507000A07800F09EFAA070207B00F09AFA2073CE
:1050800010BDD3490839D2E738B50022D04B009281
:10509000CA221A6053221A60CD4A1C3A00291168AC
:1050A00002D00143116012E081431160C84A183AEE
:1050B00095131168009C01EA1021641C0094AC4215
:1050C00001D00029F5D0116811EA102000D001208C
:1050D000FF21196038BD10B5BD4BCA241C60532494
:1050E0001C601143B0F5807F05D0B94824300160C1
:1050F000FF20186010BDB6482030F8E7B0F5807F7B
:1051000005D0B34824300068C0F30E007047B048A3
:105110002030F8E7AE4ACA21116053211160AC4932
:105120001C390B6823F007030B600B6803430B600B
:10513000FF2010607047A649CA220A6053220A6005
:10514000A34A103A1060FF2008607047A04810384A
:10515000006880B2704718B500219D4A0091CA21AD
:105160001160532111609A491C390028086803D046
:1051700040F48060086014E020F480600860944887
:10518000183884130168009B01F004015B1C009334
:10519000A34201D00029F5D00068400701D40020C7
:1051A00000E00120FF21116018BD894B10B5CA2213
:1051B0001A6053221A60864A1C3A146824F4802428
:1051C00014601468084304431460FF20186010BD85
:1051D0007F481C38006800F4802070477C4B10B575
:1051E000CA221A6053221A60794A1C3A146824F4BD
:1051F000E00414601468084304431460FF2018603E
:1052000010BDF0B5724C07460025CA200E4620603E
:1052100053202060FFF7DBFC30B16D4837430C387A
:105220000760FFF745FD0125FF2020602846F0BDFF
:1052300070B5674C06460025CA20206053202060C8
:10524000FFF7C5FC60B162481C38016816B141F037
:10525000800101E021F080010160FFF729FD0125B7
:10526000FF202060284670BD594ACA211160532191
:10527000116057491C390028086802D040F400002A
:1052800001E020F400000860FF2010607047504AE1
:10529000CA211160532111604D491C390B6823F458
:1052A00000230B600B6803430B60FF201060704706
:1052B000F0B5474B0024CA251D6053251D60444DA1
:1052C000183D2E68F60308D54FF400362F68FF030B
:1052D00003D5B44201D0641CF8E72C68E40306D47B
:1052E00008433B49104318310860012000E00020CA
:1052F000FF211960F0BD364B10B51C3B1A6840F613
:105300000804A24342EA000209B142F400623048B4
:10531000CA210160532101601A60FF21016010BDA4
:1053200070B50D462A4914460C310968294A1140C6
:10533000274A103212684FF63F731A40C1F30543F3
:105340002B70C1F306236B7001F07F03AB70402319
:1053500003EA1141E9700021E170C2F30421617098
:1053600002F03F01A170C2F342312170002817D131
:10537000287800F01EF92870687800F01AF9687033
:10538000A87800F016F9A870607800F012F9607043
:10539000A07800F00EF9A070207800F00AF92070D3
:1053A00070BD0B48143000687047094A1C32002950
:1053B000116803D041EA40001060704721EA4000C4
:1053C000FAE7034A1C320029116805D0014304E0C2
:1053D000242800407F7F7F00814311607047794916
:1053E0000A6822F4C0520A600A6802430A607047E1
:1053F00074490A6822F4E0620A600A6802430A609B
:10540000704770490A6822F4C0420A600A68024381
:105410000A6070476B490028086802D040F080009D
:1054200001E020F0800008607047664900280868A5
:1054300002D020F4004001E040F4004008607047D2
:10544000604A08B5103202EB80000090016008BD90
:105450005C4908B5103101EB80000090006808BD80
:1054600058490A6822F480320A600A6802430A60D6
:10547000704754490A6822F400320A600A680243FD
:105480000A6070474F490A6822F480220A600A685D
:1054900002430A60704770B54A4C0022CA231C3C84
:1054A000236053232360474B343B1D682D0707D5EA
:1054B0009D141E68360703D5AA4201D0521CF8E796
:1054C0001A6812070DD43F4A383A1268D20608D437
:1054D00001433C4814380160FFF756FB10B101202E
:1054E00000E00020FF21216070BD30B5354DCA229B
:1054F0001C3D2A6053222A60324B20F00404383BC2
:105500000029304A196800F0040004D021431960D2
:105510001168014303E0A1431960116881431160E0
:10552000FF20286030BD0246264900203439096832
:10553000254B1940114200D00120704780B240F045
:105540008000C1431F483438026802F080021143D2
:10555000016070471B4A0021126802F00403194AD7
:10556000383A126803EAD03302401A43174B1B68DB
:1055700003EA101003D00004000C00D001210846FB
:105580007047C0F30F1040F08000C1430F4802681D
:1055900002F08002114301607047002103E0491CC2
:1055A0000A38C9B2C0B20A28F9D2090740EA116024
:1055B0007047010901EB810100F00F0000EB410091
:1055C000C0B27047402800407F3F01000C280040D7
:1055D00010B501210C072046FEF7D9FA2046BDE898
:1055E00010400021FEF7D3BA404908627047404A94
:1055F000116821F0E0010143116070473B490861E7
:1056000070473A49C1F8A00070473849C1F8A40072
:105610007047374A116821F44041014311607047D7
:10562000324908647047314948647047304900285E
:10563000086802D040F4402001E020F440200860D7
:1056400070472A4900B10120C8627047274900B15C
:10565000012088627047254948627047244B10B585
:105660001A6840F60344A24302431A6021480268C4
:1056700042F004020260012905D020BF016821F038
:105680000401016010BD30BFF8E7194B10B51A686E
:1056900040F60344A24302431A601648026842F0EF
:1056A00004020260012905D020BF016821F0040135
:1056B000016010BD30BFF8E70D48016841F00201FC
:1056C00001600C48016841F00401016030BF70477F
:1056D000074A0146002052680A4200D00120704764
:1056E00003490A6842EA80000860704700000E42E1
:1056F0000070004010ED00E02DE9F0410446007913
:105700000027F8B1E56A04F13001607801232A46E8
:10571000884602F05CFB08B1012713E000202071ED
:10572000206AA169281A88420CD2E67808E0A069AC
:105730000123054460782A46414602F048FB761E64
:10574000022EF4D23846BDE8F08170B50446FFF76A
:10575000D3FF05004FD12078032845D16079012877
:1057600042D104F1300062890021064602F028FA95
:10577000552084F82E02AA2084F82F02522084F8A3
:10578000300084F83100612084F83200412184F82F
:105790003310722284F8142284F8152284F8161229
:1057A00084F81702206984F81802010A84F8191293
:1057B000010C84F81A12000E84F81B02E06884F8C9
:1057C0001C02010A84F81D12010C84F81E12000E3E
:1057D00084F81F02E2690123521CE26260783146BC
:1057E00002F0F5FA0020607100226078114602F0A4
:1057F0002AFB00B10125284670BD70B50446C06A79
:105800000D460026A8420FD02046FFF775FF060080
:105810000AD1607801232A4604F1300102F099FA96
:1058200008B1751E0126E562304670BD2DE9F047CE
:1058300017460D460446022902D36069A84202D8E1
:105840000220BDE8F087217807F0FF084FF001093A
:10585000012925D002295FD00329F1D16089216A6D
:105860008008B5FBF0F001442046FFF7C6FF002892
:10587000E7D16289A900B1FBF2F302FB13110A1907
:105880004FF07043D2F8311003EA0121394302F896
:10589000301F0B0A53700B0C9370090ED17052E03D
:1058A000608905EB5506B6FBF0F0216A01442046FD
:1058B000FFF7A3FF0028C4D16089B6FBF0F100FB1D
:1058C000116020443030761CE90703D0017868F37A
:1058D0001F1100E03946017084F804906089216A44
:1058E000B6FBF0F001442046FFF787FF0028A8D15F
:1058F0006189B6FBF1F201FB126121443031EA0704
:1059000002D0C7F3071205E00A78C7F3032302F0B9
:10591000F0021A430A7016E06089216A4008B5FB5C
:10592000F0F001442046FFF768FF002889D1628922
:105930006900B1FBF2F302FB131121443A0A81F82A
:10594000308081F8312084F804907AE72DE9F04125
:105950000D46044602290BD36069A84208D9207875
:105960004FF0FF36012806D0022833D0032845D057
:1059700001263046E7E6608905EB5507B7FBF0F0F6
:10598000216A01442046FFF738FF0028F1D16089E1
:10599000B7FBF0F100FB11717F1CB7FBF0F0214465
:1059A00091F83080216A01442046FFF726FF002845
:1059B000DFD16089B7FBF0F100FB1170204490F853
:1059C000301048EA0120E90701D00609D1E7C0F309
:1059D0000B06CEE76089216A4008B5FBF0F0014470
:1059E0002046FFF70AFF0028C3D161896800B0FB99
:1059F000F1F201FB12002044068EBAE76089216AA9
:105A00008008B5FBF0F001442046FFF7F6FE0028C1
:105A1000AFD16189A800B0FBF1F201FB1200204474
:105A200090F83010D0F8310041EA002020F07046A4
:105A30009FE72DE9F0410F460646022916D370690B
:105A4000B84213D900251FE039463046FFF77EFFE4
:105A500004001CD0012C09D0601C09D0002239465A
:105A60003046FFF7E3FE050011D103E002250EE00A
:105A700001250CE03069411C05D0401C3061707973
:105A800040F00100707127467069B842DCD82846A2
:105A900059E64269891E921E8A4201D80020704749
:105AA000826A807801FB002070472DE9F0410F00E9
:105AB000054605D0FFF74AFF022808D2012042E63A
:105AC000EE6816B16869B04207D8012605E0411CAE
:105AD000F5D069698142F2D83E4634466869641C53
